:020000040800F2
:1000000000900020E5110008051000080710000806
:1000100000000000000000000000000000000000E0
:1000200000000000000000000000000009100008AF
:1000300000000000000000000B1000080D10000878
:1000400035120008000000003512000835120008C3
:100050003512000835120008351200083512000864
:1000600000000000351200083512000835120008A3
:100070003512000835120008351200080000000093
:100080003512000815100008351200083512000856
:100090003512000835120008351200083512000824
:1000A0003512000835120008351200083512000814
:0800B0002510000835120008BC
:1000B80010B5064C2378002B07D1054B002B02D036
:1000C800044800E000BF0123237010BD8C04002009
:1000D8000000000098360008044B10B5002B03D030
:1000E8000349044800E000BF10BDC04600000000FE
:1000F8009004002098360008002243088B4274D3ED
:1001080003098B425FD3030A8B4244D3030B8B4210
:1001180028D3030C8B420DD3FF22090212BA030C19
:100128008B4202D31212090265D0030B8B4219D3FA
:1001380000E0090AC30B8B4201D3CB03C01A52411A
:10014800830B8B4201D38B03C01A5241430B8B4262
:1001580001D34B03C01A5241030B8B4201D30B034B
:10016800C01A5241C30A8B4201D3CB02C01A524172
:10017800830A8B4201D38B02C01A5241430A8B4235
:1001880001D34B02C01A5241030A8B4201D30B021E
:10019800C01A5241CDD2C3098B4201D3CB01C01A38
:1001A800524183098B4201D38B01C01A5241430942
:1001B8008B4201D34B01C01A524103098B4201D330
:1001C8000B01C01A5241C3088B4201D3CB00C01A9D
:1001D800524183088B4201D38B00C01A5241430815
:1001E8008B4201D34B00C01A5241411A00D201463A
:1001F800524110467047FFE701B5002000F0F0F8C3
:1002080002BDC0460029F7D076E7704703460B4386
:100218007FD4002243088B4274D303098B425FD3F7
:10022800030A8B4244D3030B8B4228D3030C8B4223
:100238000DD3FF22090212BA030C8B4202D3121209
:10024800090265D0030B8B4219D300E0090AC30BDE
:100258008B4201D3CB03C01A5241830B8B4201D38B
:100268008B03C01A5241430B8B4201D34B03C01A74
:100278005241030B8B4201D30B03C01A5241C30AEC
:100288008B4201D3CB02C01A5241830A8B4201D35D
:100298008B02C01A5241430A8B4201D34B02C01A47
:1002A8005241030A8B4201D30B02C01A5241CDD2EC
:1002B800C3098B4201D3CB01C01A524183098B4237
:1002C80001D38B01C01A524143098B4201D34B0120
:1002D800C01A524103098B4201D30B01C01A524183
:1002E800C3088B4201D3CB00C01A524183088B420A
:1002F80001D38B00C01A524143088B4201D34B00F3
:10030800C01A5241411A00D2014652411046704764
:100318005DE0CA0F00D04942031000D34042534069
:1003280000229C4603098B422DD3030A8B4212D329
:10033800FC22890112BA030A8B420CD3890192115B
:100348008B4208D3890192118B4204D389013AD098
:10035800921100E08909C3098B4201D3CB01C01A6D
:10036800524183098B4201D38B01C01A5241430980
:100378008B4201D34B01C01A524103098B4201D36E
:100388000B01C01A5241C3088B4201D3CB00C01ADB
:10039800524183088B4201D38B00C01A5241D9D2F3
:1003A80043088B4201D34B00C01A5241411A00D274
:1003B8000146634652415B10104601D34042002B70
:1003C80000D54942704763465B1000D3404201B5EF
:1003D800002000F005F802BD0029F8D016E77047A4
:1003E8007047C04610B50400C30741D58021A0203E
:1003F80001220901C00501F026F9A30740D5802193
:10040800A0200122C900C00501F01DF963073FD5EE
:10041800802101224900334801F015F923073ED510
:1004280001228021304801F00EF9E3063DD5012272
:1004380040212D4801F007F9A3063CD58021A020D2
:1004480001228900C00501F0FEF863063BD5802132
:10045800A02001224900C00501F0F5F864B2002C83
:1004680039DB802100220902204801F0ECF810BD98
:100478008021A02000220901C00501F0E4F8BCE7B2
:100488008021A0200022C900C00501F0DCF8BDE7EA
:10049800802100224900134801F0D5F8BEE7002268
:1004A8008021114801F0CFF8BFE7002240210E4813
:1004B80001F0C9F8C0E78021A02000228900C0050A
:1004C80001F0C1F8C1E78021A02000224900C00541
:1004D80001F0B9F8C2E7802101220902034801F0BE
:1004E800B2F8C4E7000C00500008005000040050A7
:1004F80070B50500802100224900124801F0A3F8D8
:100508008021A024E40500220902200001F09BF8C4
:100518002800FFF767FF052000F0C2FB80256D016A
:1005280001222900200001F08EF8052000F0B8FB18
:1005380000222900200001F086F8052000F0B0FB19
:1005480070BDC0460008005070B50500802101222A
:100558004900124801F077F88021A024E405002220
:100568000902200001F06FF82800FFF73BFF052083
:1005780000F096FB80256D0101222900200001F082
:1005880062F8052000F08CFB00222900200001F011
:100598005AF8052000F084FB70BDC04600080050E2
:1005A80070B50E001500FFF7A3FF052000F078FBDB
:1005B800002407E0305DFFF7C7FF052000F070FB5F
:1005C8000134E4B2AC42F5D370BDF0B5C64600B50F
:1005D80082B080460C001700002300930193072681
:1005E8000DE00A212000FFF70DFECDB20A21200000
:1005F800FFF782FD84B2731E6A469555DEB2002C61
:10060800EFD14046FFF774FF052000F049FB08349E
:10061800E41B09E06B46185D3030C0B2FFF794FF69
:10062800052000F03DFB0134072CF3DD02B080BC4F
:10063800B846F0BD70B58025AD01274C01222900D0
:10064800200001F000F800222900200000F0FBFF44
:10065800282000F03FFE01222900200000F0F3FFCF
:10066800012000F037FE80210122C901200000F09E
:10067800EAFF3020FFF73CFF012000F02BFE0C20A2
:10068800FFF736FF012000F025FE0120FFF730FFBD
:100698000B2000F01FFE0620FFF72AFF012000F0C4
:1006A80019FE0220FFF724FF012000F013FE0622A6
:1006B8000A498020FFF774FF0E2209499020FFF7AE
:1006C8006FFF102207498820FFF76AFF0A220649B0
:1006D8009820FFF765FF70BD00040050200000203F
:1006E8002C000020000000201000002010B500227F
:1006F800012304E0C45CA21892B20133DBB28B423E
:10070800F8D3130AD0B2C018C0B2C043C0B210BDEB
:1007180010B504000020002304E0E25C101880B249
:100728000133DBB28B42F8D3FF21FFF76BFDC843DF
:10073800C0B210BD70B504000D00002B17D18E1883
:1007480008212800FFF7D2FF3070200002F030FAAD
:1007580001267642330001220849200002F01EFCDF
:1007680033000A222900200002F018FC70BD8E1800
:1007780009212800FFF7CCFF3070E6E73B00002096
:1007880070B582B004006B46DD1DD97102F010FA15
:1007980001267642330001220549200002F0FEFBC3
:1007A800330001222900200002F0F8FB02B070BDDE
:1007B8003B00002030B5174B00241C70164B1880E6
:1007C800164B1980164B1B789900C918154C6418DC
:1007D800657815490D704870000A8870A078C8704F
:1007E800002A03D0E2780A7105230CE09A00D21897
:1007F8000C4B9B181A790C4B1A71F5E75A1C0A49CD
:10080800FF20C854D3B2082BF8D9024B01221A7022
:1008180030BDC046B0040020AC040020AA0400206B
:10082800B10400203C000020C004002010B51A4B81
:100838001B78002B04D1194B1B78002B15D110BD48
:10084800174B1A7893009A18164B9B185B78164921
:100858000B70012309221548FFF76CFF0F4B01228B
:100868001A70142000F036FDE5E70D4C227893004D
:100878009B180C4A995C0D48FFF782FF142000F082
:1008880029FD23780133DBB22370032BD7D1044B26
:1008980000221A70D3E7C046B0040020AF0400203D
:1008A800B10400203C000020C004002020050020E6
:1008B80010B500280DD091420CD0140010220B491D
:1008C8008820FFF76DFE0A4B1988A0B20022FFF7B7
:1008D80071FF10BD074B1B78002B05D1044A138804
:1008E800013B13800024E9E70024E7E7B03600085D
:1008F800CA040020AE04002010B50A4B00221A706A
:10090800094B07321A70E1239B00984200D010BDB2
:10091800064B1A88064B1988064B1888FFF7C8FF3C
:10092800F5E7C046A80400203A000020CC040020C7
:10093800AC040020AA04002010B5194B9B78F52BB5
:1009480004D0372B10D0202B1CD010BD154A13789B
:1009580001210B431370042213498820FFF720FE5E
:10096800642000F0B7FCF0E70E4A137802210B432D
:10097800137004220D498B20FFF712FE642000F04B
:10098800A9FCE2E7074A137804210B4313700422F9
:1009980007498E20FFF704FE642000F09BFCD4E793
:1009A800B4040020A8040020C4360008CC3600088F
:1009B800D436000810B504004B4809210230FFF76F
:1009C800A7FE0B2C1FD8484B9B78F52B09D0372B4B
:1009D8000DD0202B11D00C220021434802F082FDBB
:1009E80010BD42490878062202400A70EFE73F49E5
:1009F8000878052202400A70EBE73C4A11781D3B53
:100A08000B401370E7E7384BDB7A8342E3D1364B70
:100A18009B78B42BDFD0762BDDD0502BDBD0324B3C
:100A2800DB78DA0718D40C22110019401A42D2D008
:100A38000429D0D02C4A12790F200100114010420D
:100A48001DD0032916D00BD801290FD00229C2D1F5
:100A58002748FFF751FFBEE72648FFF74DFFBAE7E3
:100A68000529B8D12448FFF747FFB4E72348FFF723
:100A780043FFB0E7E2208000FFF73EFFABE73021FD
:100A88000800104011420BD0102805D02028A2D110
:100A98001B48FFF731FF9EE71A48FFF72DFF9AE73B
:100AA8003F218A43402A1AD0DB0600D593E70E4936
:100AB8008A7912024B791343134A12889A4200D05A
:100AC80089E7FFF739FF114B1A78084B1B789A42D0
:100AD80000D080E7E1208000FFF70EFF7BE7E320EE
:100AE8008000FFF709FF76E7B40400203A000020F1
:100AF80087030000850300008903000086030000C7
:100B08008B0300008A030000AC040020A804002026
:100B1800F0B5DE4657464E464546E0B58BB0142242
:100B2800002105A802F0DEFC3F4B596B042211435B
:100B38005963596B0A400192019A5A6B01252A435D
:100B48005A635A6B2A400292029A596B0222114345
:100B58005963596B0A400392039A596B082211434F
:100B680059635B6B1A400492049BE22464002F4B88
:100B78009B4600222100180000F065FD2C4B9A4688
:100B8800A023DB05994600225146180000F05BFDC2
:100B9800284B9846284E00221900300000F053FDDB
:100BA800264F002280214900380000F04CFD0594B2
:100BB800069500240794089405A9584600F080FC7F
:100BC8005346059306950794089405A9484600F0EE
:100BD80077FC4346059306950794089405A93000C9
:100BE80000F06EFC80235B0005930695079408943B
:100BF80005A9380000F064FC2023059306940794A7
:100C080005A9380000F05CFCF6239B0005930694C8
:100C1800079405A9300000F053FC0BB0F0BCBB46AC
:100C2800B246A946A046F0BD001002400008005098
:100C3800109F000001E0000000040050000C00506C
:100C480070B504000D0000F0F7FC0600012802D082
:100C58000026300070BD2900200000F0EDFC0128BE
:100C6800F9D0F6E70A4B984200D070470368DB6971
:100C7800DB06FAD5064B1B6810221A62054B0F3AA1
:100C88001A70054B1978054A117000221A70ECE7A2
:100C980020050020CF040020D1040020D00400202B
:100CA800034B584303000138002BFBD17047C04663
:100CB800370C00000378002B02D101330370704712
:100CC80000230370FBE7000010B502681C4B1B688B
:100CD8009A4200D010BD1B4A13780133DBB213705F
:100CE800194A1278012A14D0174B1B78022B19D0F5
:100CF800022BEFD1154B1B78002BEBD1114B1B7836
:100D0800F02BE7D1114B01221A700E4B00221A70FA
:100D1800E0E7F02BE8D10D48FFF7CCFF094B0022A4
:100D28001A70E1E7094A1278012AE1D1054A1278D6
:100D3800012ADDD1002205490A7002490A70D7E765
:100D4800D4040020D20400204C0000204B000020D6
:100D580072B6FEE700B593B03422002105A802F070
:100D6800C1FB1022002101A802F0BCFB80208000FA
:100D780000F070FC02230593FE33089300230993C7
:100D880040220A920C9305A800F08EFC00280DD191
:100D9800072301930023029303930493002101A8DE
:100DA80000F030FF002803D113B000BDFFF7D0FFDB
:100DB800FFF7CEFF10B5064B984200D010BD0122B8
:100DC800044902F0A1FA0028F8D0FFF7C1FFC04695
:100DD80020050020CE04002010B500F055FAFFF7DA
:100DE800B9FFAF20800000F075FAFFF791FE00F020
:100DF80071F900F021F949480368102119621A684D
:100E08000A431A60FFF7D6FF454C200001F0D6F8D8
:100E1800200001F09FF801220421424800F013FC51
:100E2800A02001221021C00500F00DFC01220121A3
:100E38003D4800F008FCFFF7FDFB3C4B00221A7010
:100E48003B4B01321A70F02040003A4B18803A4B65
:100E58003A4A1A8000223A49FFF7ACFC25E00422FE
:100E680038498320FFF79CFB304B197803229320E5
:100E7800FFF7ABFB344B197801229D20FFF7A5FB48
:100E8800802189002848FFF7DBFE002817D12021A0
:100E98002E48FFF7D5FE002822D12D4B1B78002BBA
:100EA80030D12C4B1B78002B2FD1294B1B78002BD2
:100EB800D5D0042228498320FFF772FBD4E7012309
:100EC800214A1370224A13700023184A1370144AD7
:100ED80012685362102221498820FFF761FBD6E788
:100EE800194B02221A701A4B013A1A7000230F4A42
:100EF80013700B4A12685362102218498820FFF7B2
:100F08004FFBCAE7FFF792FCCBE7154B1878FFF7C2
:100F180051FD104B00221A70C7E7C046200500207B
:100F2800D40400200008005000040050D20400201F
:100F3800AE040020CC040020CA04002048EEFFFFC5
:100F480048EE0000280000204C000020000C005053
:100F58004B000020CF0400201C000020B036000801
:100F6800D004002010B5074B984202D0FFF722FFAB
:100F780010BD054A137805490C780549CC5401334E
:100F88001370F3E720050020D1040020CE040020D0
:100F9800B404002010B5040001F022FE030700D4B9
:100FA80010BD2268936908210B43936122689369F5
:100FB80008310B4393612000FFF7FCFE90230022C9
:100FC800E250EDE700B583B00B4B196C01221143D9
:100FD8001964196C0A400092009ADA6B802149055D
:100FE8000A43DA63DB6B0B400193019BC020C0000E
:100FF80000F082F903B000BD00100240FEE7FEE7F2
:101008007047704710B500F053F910BD10B502488D
:1010180001F010F810BDC046D404002010B5044CEF
:101028002000FFF71FFE200001F0CEF910BDC046DA
:10103800200500207047000000B585B00C22002173
:1010480001A802F04FFA1048104B0360104B4360A0
:10105800002383600F4BC3608023836101F0F0F8A5
:1010680000280AD100230193039301A9064801F03F
:1010780017F9002804D105B000BDFFF769FEF1E7B4
:10108800FFF766FEF7E7C046D404002000100040D2
:101098007F3E00005FEA000000B583B002680B4B9A
:1010A8009A4201D003B000BD094AD16B10231943FD
:1010B800D163D26B13400193019B002200211120C0
:1010C80000F026F9112000F053F9EBE7001000407A
:1010D8000010024010B51A481A4B03609623DB0132
:1010E800436000238360C36003610C224261836113
:1010F800C361036243628362002102F001F80028A1
:1011080011D100210E4802F07DF900280ED10021EE
:101118000B4802F09DF900280BD1094802F052F95A
:10112800002809D110BDFFF713FEEAE7FFF710FE0C
:10113800EDE7FFF70DFEF0E7FFF70AFEF2E7C0461E
:10114800200500200044004010B58EB00400142291
:10115800002109A802F0C6F91C22002102A802F009
:10116800C1F922681B4B9A4201D00EB010BD022370
:10117800029302A800F026FE002827D1164BD96B4F
:10118800802080020143D963DA6B02400092009A02
:10119800596B0122114359635B6B13400193019B07
:1011A8000C2309930A3B0A9300230B930C930D928B
:1011B800A02009A9C00500F083F9002200211C2005
:1011C80000F0A6F81C2000F0D3F8CEE7FFF7C0FD2A
:1011D800D4E7C04600440040001002400D48854650
:1011E800FFF728FF0C480D490D4A002302E0D458A8
:1011F800C4500433C4188C42F9D30A4A0A4C002359
:1012080001E013600432A242FBD302F049F9FFF770
:10121800E3FDFEE700900020000000208C04002081
:10122800743700088C040020BC050020FEE700008D
:1012380010B50400114B1978002901D1012010BD07
:10124800FA208000FEF758FF01000D4B1868FEF7E2
:1012580053FF00F099F800280DD1032C01D9012083
:10126800EDE7013000222100404200F051F8054B23
:101278001C600020E3E70120E1E7C046540000209D
:10128800500000205800002010B5084A116880233B
:101298005B000B4313600320FFF7CAFF041E02D054
:1012A8000124200010BDFFF78DFEFAE70020024060
:1012B800034B1B78034A11685B1813607047C046DC
:1012C80054000020B4050020014B18687047C04640
:1012D800B405002070B50400FFF7F6FF0500631C95
:1012E80002D0044B1B78E418FFF7EEFF401BA04226
:1012F800FAD370BD54000020034A136803490B4019
:10130800034313607047C04600000140FFF9FFFF28
:1013180070B5002811DB8308134EC0339B009D591C
:1013280003242040C000FF2214008440A543890103
:101338000A4082402A439A5170BD0F230340083B5C
:101348009B0806339B00094A944663445C68032261
:101358001040C000FC3215008540AC4389010A40AA
:10136800824022435A60E7E700E100E000ED00E038
:10137800002805DB1F2318401E3B8340014A1360E9
:101388007047C04600E100E0013880235B049842C2
:101398000FD2094A50600948036A1B021B0AC02180
:1013A80009060B4303620023936007331360002090
:1013B80070470120FCE7C04610E000E000ED00E0C7
:1013C80030B5002836D02523C35C022B06D0042371
:1013D800C36320330022C254012030BD0268136861
:1013E8000E218B431360426C136813490B40136042
:1013F80001680A6801239A430A60104C62681C213C
:10140800056C29408B4013436360836CC26C5A603F
:10141800036D002B06D01A6807490A401A60436D0D
:10142800826D5A6025230122C254013B0022C25416
:101438000020D2E70120D0E7FFFEFFFF00000240B6
:1014480070B52523C35C022B03D00423C36301209A
:1014580070BD026813680E218B43136001680A6827
:1014680001239A430A60416C0A68134C22400A60BF
:10147800124C62681C21056C29408B401343636041
:10148800836CC26C5A60036D002B06D01A680A4937
:101498000A401A60436D826D5A6025230122C254A6
:1014A800013B0022C254836B002B02D098470020D6
:1014B800CEE70020CCE7C046FFFEFFFF0000024059
:1014C800F0B500235AE084685F000326BE40B443A9
:1014D8002600CC68BC4034438460446894434A681E
:1014E8001609012232409A402243426056E0DC0845
:1014F8000834A400265805321A4092000F27974056
:10150800BE430F6997403A00324322505AE00326FF
:1015180000E00026A64034003C43434E18329200B7
:1015280094513468EA432600AE434F68FF0201D560
:101538002C4326003C4C26606468260016404F6801
:10154800BF0201D52C432600374C66608426A45977
:10155800260016404F68BF0301D52C432600324CA5
:101568008427E6518026A45922404E68F60301D507
:101578002A0022432C4D80242A5101330C68220072
:10158800DA404FD001229A40250015401442F4D089
:1015980003244E683440013C012C94D903224C6842
:1015A8002240032A09D0C2685E000324B440A24343
:1015B80014008A68B2402243C26003224C68224069
:1015C800022A94D004685E0003221700B740BC4387
:1015D8004F683A40B24022430260C02292024C68EF
:1015E8001442CAD09A0814001834A4000E4EA75901
:1015F80003241C40E4000F26A640B743A026F605A6
:10160800B04286D0094EB04208D0094EB04207D049
:10161800084EB04200D17AE705267BE7012679E734
:10162800022677E7F0BDC0460018024000040050CB
:1016380000080050000C005003690B4201D0012043
:1016480070470020FCE7002A01D081617047816261
:10165800FCE7000010B5104A136810490B4003431B
:10166800136080239B00984201D0002010BD0C4BD2
:101678001B685800C01840000A49FEF73DFD0130BC
:10168800054B5B695B0503D5002803D00138F7E7F4
:101698000020EBE70320E9E700700040FFF9FFFFB7
:1016A8005000002040420F0070B582B0041E00D1E7
:1016B80029E20368DB0739D5C14A916838230B4012
:1016C800D16803220A40102B26D0082B26D0636845
:1016D8008022520293427FD0A022D202934200D1AC
:1016E80081E0B74B1A68B7490A401A601A68B649C8
:1016F8000A401A606368002B00D180E0FFF7E4FD20
:101708000500AF4B1B689B0310D4FFF7DDFD401BA2
:101718006428F6D90320F7E1032AD6D1A84B1B6821
:101728009B0303D56368002B00D1EFE123689B0777
:1017380031D5A34A936838210B40D16803220A4067
:10174800102B6AD0002B6BD19D4A1268520503D525
:10175800E268002A00D1DBE1994842689B490A40C7
:10176800616909020A434260002B0DD10368984958
:101778000B4021690B4303600368DB0A07221A4008
:10178800944BD340944A1360944B1868FFF750FD6C
:10179800002800D0BEE123681B0700D481E0884BF5
:1017A8009A6838231340182B73D0A369002B00D1F3
:1017B800B4E0834A136E01210B431366FFF784FDDF
:1017C80005007F4B1B6E9B076BD4FFF77DFD401B0D
:1017D8000228F6D9032097E1794A116880235B0231
:1017E8000B43136086E7764B19688022D2020A43BE
:1017F8001A601968802252020A431A607AE7FFF7D2
:1018080063FD05006E4B1B689B038FD5FFF75CFDDE
:10181800401B6428F6D9032076E1022A92D193E787
:10182800E368002B22D0664A136869490B40216996
:101838000B431360116880235B000B431360FFF7B1
:1018480043FD05005E4B1B685B0506D4FFF73CFDB6
:10185800401B0228F6D9032056E159494B685B4AD8
:1018680013406269120213434B6094E7544A1368A9
:101878005B490B401360FFF727FD0500504B1B68C1
:101888005B0588D5FFF720FD401B0228F6D9032009
:101898003AE14B4B1B6E9B0703D5A369002B00D184
:1018A8003AE123685B0700D4A2E0454B9A683823E5
:1018B8001340202B45D0424BDB6BDB004AD4404A17
:1018C800D16B802040050143D163D36B0340019362
:1018D800019B0125434B1B68DB053DD5A368012B04
:1018E8004ED0052B52D0364BDA6D01218A43DA658A
:1018F800DA6D03318A43DA65A368002B50D0FFF70D
:10190800E3FC06002E4BDB6D9B076FD4FFF7DCFC76
:10191800801B354B9842F5D90320F5E0284A136E11
:1019280001218B431366FFF7CFFC0500244B1B6E88
:101938009B07B6D5FFF7C8FC401B0228F6D9032041
:10194800E2E01F4BDB6D9B0752D5A368002B4FD1FC
:101958000120D9E00025BDE7224A116880235B00F9
:101968000B431360FFF7B0FC06001E4B1B68DB053A
:10197800B4D4FFF7A9FC801B0228F6D90320C3E0E2
:101988000F4AD36D01210B43D365B5E70C4BDA6DD4
:1019980004210A43DA65DA6D03390A43DA65ABE7ED
:1019A800FFF792FC0600064BDB6D9B071ED5FFF781
:1019B8008BFC801B0C4B9842F5D90320A4E0C04651
:1019C80000100240FFFFFEFFFFFFFBFFFF80FFFF4D
:1019D800FFC7FFFF0024F40050000020580000203B
:1019E800FFFEFFFF0070004088130000012D1ED08D
:1019F800E369002B00D191E04F4A916838220A40F0
:101A0800102A5ED0022B18D04B4A13684B490B4062
:101A18001360FFF759FC0400474B1B689B0149D52D
:101A2800FFF752FC001B0228F6D903206CE0424A5B
:101A3800D36B43490B40D363DAE73F4A13683F4906
:101A48000B401360FFF740FC05003B4B1B689B01F4
:101A580006D5FFF739FC401B0228F6D9032053E0CE
:101A6800354AD36837491940236A606A0343A06A34
:101A780000020343E06A0343206B03430B43D36034
:101A8800116880235B040B431360D16880235B05D6
:101A98000B43D360FFF718FC0400274B1B689B011E
:101AA80006D4FFF711FC001B0228F6D903202BE00F
:101AB800002029E0204AD36823490B40D360002046
:101AC80022E0012B2CD01C4BDA6803231340216A37
:101AD8008B4227D170231340616A8B4224D1FE21A7
:101AE800C9011140A36A1B0299421FD1F8239B0325
:101AF8001340E16A8B421BD1520F5207236B9A4263
:101B080018D1002000E0012002B070BD0120FBE7E1
:101B18000120F9E70120F7E70120F5E70020F3E7C6
:101B28000120F1E70120EFE70120EDE70120EBE7D5
:101B38000120E9E70120E7E700100240FFFFFFFE70
:101B4800FFFFFFEF8C80C11FFCFFFEEF10B52A4B93
:101B58009B6838221A4207D1274B1A68D20A0723F2
:101B680013402648D84010BD234B9A6838231340A9
:101B7800082B3BD0204B9A6838231340102B0DD0EC
:101B88001D4B9A6838231340202B31D01A4B9A6882
:101B980038231340182B26D00020E4E7164AD168D2
:101BA8000D3B0B40D2681209072111400131032B6C
:101BB8000FD01248FEF7A0FA0F4BDA68120A7F23FB
:101BC800134058430C4BD968490F0131FEF794FA7A
:101BD800C9E70B48FEF790FA074BDA68120A7F2329
:101BE80013405843EEE7FA20C001BCE70448BAE7BF
:101BF80080200002B7E7C046001002400024F4002D
:101C080000127A0070B504000D00002800D1AAE087
:101C1800574B1A68072313408B4221D323689A072E
:101C28000ED55B0705D5534A9168E023DB010B43CA
:101C38009360504A936850490B40A1680B439360E6
:101C48002368DB0754D56368012B20D0022B3BD0D7
:101C5800002B3FD1474A126852051CD401206AE084
:101C6800434A136807218B432B431360FFF72CFB70
:101C780006003F4B1A6807231340AB42CED0FFF74C
:101C880023FB801B3D4A9042F3D9032053E0394A95
:101C98001268920369D537498A680720824313433B
:101CA8008B60FFF711FB0600324B9B6838221A4005
:101CB8006368DB009A421BD0FFF706FB801B2F4BA3
:101CC8009842F1D9032036E02A4A12689201E2D4F8
:101CD800012030E0032B05D0264AD26D9207DAD4D2
:101CE800012028E0234A126E9207D4D4012022E072
:101CF8001F4B1A6807231340AB421DD823685B07A4
:101D080006D51C4A93681E490B40E1680B43936053
:101D1800FFF71CFF174B9A68120A0F2313409B000A
:101D2800184A9A581F231340D840174B1860174B6E
:101D38001868FFF77DFA70BD0D4A136807218B43B9
:101D48002B431360FFF7C0FA0600094B1A680723F4
:101D58001340AB42D2D0FFF7B7FA801B074B98422B
:101D6800F3D90320E7E70120E5E70120E3E7C046D0
:101D78000020024000100240FFF0FFFF881300001F
:101D8800FF8FFFFFDC3600085000002058000020BD
:101D9800014B18687047C0465000002010B5FFF787
:101DA800F7FF064B9A68120B072313409B00044A5F
:101DB8009A581F231340D84010BDC0460010024057
:101DC8001C370008F0B583B0040003689B0362D594
:101DD800584BDB6BDB001ED4564AD16B8020400584
:101DE8000143D163D36B03400193019B0126524AFF
:101DF800116880235B000B431360FFF765FA050049
:101E08004D4B1B68DB0508D4FFF75EFA401B022820
:101E1800F6D9032502E00026E9E70025002D23D1A5
:101E2800444BD96DC02292000B001340114210D0D0
:101E3800A2699A420DD03F4AD36D40490B40D06DFC
:101E4800802149020143D165D16D3D480140D165EA
:101E5800D365DB0710D4002D06D1364AD36D374938
:101E68000B40A1690B43D365012E15D1314AD36BC1
:101E780034490B40D3630FE0FFF726FA07002D4BD8
:101E8800DB6D9B07E7D4FFF71FFAC01B2E4B984268
:101E9800F5D90325DFE700252368DB0706D5254AA2
:101EA800536D03218B4361680B43536523689B077C
:101EB80006D5204A536D0C218B43A1680B4353650B
:101EC80023689B0606D51B4A536D20490B40E168E1
:101ED8000B43536523685B040BD5164A536D9B006F
:101EE8009B0861690B4353658023DB0562699A424D
:101EF80011D023681B050BD50E4A536D14490B40AE
:101F080021690B43536522698023DB019A4209D07A
:101F1800280003B0F0BD074AD16880235B020B4359
:101F2800D360E6E7034AD16880235B020B43D360A2
:101F3800EEE7C0460010024000700040FFFCFFFFC3
:101F4800FFFFFEFFFFFFFFEF88130000FFCFFFFF3B
:101F5800FF3FFFFF3D23C35C012B20D13C3302220E
:101F6800C2540368114A93420BD0114A934208D0D5
:101F7800104A934205D01A6801210A431A600020CA
:101F88000EE09A680C490A40062A0AD007398A42A4
:101F980009D01A6801210A431A60002000E00120D4
:101FA80070470020FCE70020FAE7C046002C0140FB
:101FB8000004004000400140070001003D23C35CCD
:101FC800012B25D13C330222C2540268D368012177
:101FD8000B43D3600368114A93420BD0104A9342D3
:101FE80008D0104A934205D01A6801210A431A60A2
:101FF80000200EE09A680C490A40062A0AD00739E0
:102008008A4209D01A6801210A431A60002000E0B8
:10201800012070470020FCE70020FAE7002C01406F
:10202800000400400040014007000100704770476D
:102038007047704710B5040003681A6992070FD5F6
:10204800DA6892070CD5032252421A6101230377FA
:1020580003689B699B076AD0FFF7E9FF0023237792
:1020680023681A69520712D5DA6852070FD5052274
:1020780052421A610223237723689A69C0239B007E
:102088001A425AD02000FFF7D2FF00232377236893
:102098001A69120710D5DA6812070DD509225242BB
:1020A8001A61042323772368DB699B074CD020003F
:1020B800FFF7BDFF0023237723681A69D20612D5DC
:1020C800DA68D2060FD5112252421A610823237703
:1020D8002368DA69C0239B001A423CD02000FFF72E
:1020E800A6FF0023237723681A69D20702D5DA6886
:1020F800D20737D423681A69120602D5DA6812069D
:1021080037D423681A69D20502D5DA68120637D49B
:1021180023681A69520602D5DA68520636D423684B
:102128001A69920602D5DA68920636D410BDFFF70E
:102138007DFF2000FFF77CFF90E72000FFF776FF88
:102148002000FFF775FFA0E72000FFF76FFF2000D2
:10215800FFF76EFFAEE72000FFF768FF2000FFF7EC
:1021680067FFBEE7022252421A612000FEF7ACFD6B
:10217800C0E7812252421A61200000F0CEF8C0E781
:10218800094A1A61200000F0C9F8C1E74122524209
:102198001A612000FFF74DFFC1E7212252421A6160
:1021A800200000F0B9F8C1E7FFFEFFFF03681D4AF1
:1021B800904202D01C4A904203D1702293434A684D
:1021C8001343184A90420ED0174A90420BD0174A30
:1021D800904208D0164A904205D0164A904202D042
:1021E800154A904203D1154A1340CA681343802206
:1021F80093434A69134303608B68C3620B68836225
:10220800084B984208D00A4B984205D0094B98428F
:1022180002D0094B984201D10B6903630123436142
:102228007047C046002C01400004004000200040D8
:10223800004001400044014000480140FFFCFFFF0E
:1022480070B5041E2AD03D23C35C002B20D03D2549
:1022580002236355210001C9FFF7A8FF0123482283
:10226800A3540A3AA3540132A3540132A3540132AD
:10227800A3540132A3540132A3540132A3540132AE
:10228800A3540132A3540132A3546355002070BDF6
:102298003C330022C254FEF7FFFED8E70120F6E7E0
:1022A80030B53C23C35C012B2CD03C230122C25403
:1022B80001330132C254026853689468124DAA422D
:1022C8001BD07025AB430D682B43536003680E4A3F
:1022D800934205D00D4A934202D00D4A934204D14D
:1022E800802294438A6814439C603D230122C2548F
:1022F800013B0022C254002030BD064D2B404D68E2
:102308002B43DEE70220F7E7002C014000040040E1
:1023180000400140FFFF0FFF704770477047000003
:1023280030B5EFF31084012282F3108801680B683E
:10233800124D2B400B6084F31088EFF3108182F369
:102348001088026893680E4C2340936081F31088CC
:10235800C36E012B06D08C232022C2500023C366F3
:10236800436730BDEFF3108183F310880268136868
:102378001024A343136081F31088ECE7DFFEFFFF0E
:10238800FEFFFFEF704710B5EFF31081012383F3D1
:102398001088026813684024A343136081F31088EF
:1023A80088232022C25000238367FFF7EBFF10BD6C
:1023B80010B5806A00235E228352083A8352FEF7E2
:1023C800E9FD10BD70470000F8B504000268D36944
:1023D80010689568BD491E000E400B4205D199064C
:1023E80003D581062CD4E9002AD4002E07D0B84999
:1023F8002E000E400D4229D1B649084226D1E16E81
:10240800012900D1AAE0D90202D5690200D543E129
:102418001A0605D5020600D545E12A0200D542E193
:102428005A0602D5420600D544E11A0202D54200F6
:1024380000D543E1DB0102D5002800DA42E1F8BD0E
:10244800636F002BFBD020009847F8E7D90707D522
:10245800C10505D501271762902162583A43625099
:102468009A0709D5EA0707D52268022111628E3139
:10247800625804273A4362505A0709D5EA0707D534
:102488002268042111628C31625802273A43625053
:102498001A070AD5820601D4002E06D0226808261B
:1024A800166290216258324362501A050AD54201D9
:1024B80008D52268802109011162902162582026DE
:1024C800324362509022A258002AB8D09B0608D501
:1024D800830601D4EB0004D5636F002B01D02000E4
:1024E80098479023E25823689B685B0602D4282308
:1024F80013422CD02000FFF713FF23689B685B066C
:1025080021D5EFF31081012383F3108822689368A3
:1025180040208343936081F310888023E358002B85
:102528000DD06D4A9A638023E058FEF789FF002892
:1025380000D184E78023E058836B98477FE7200029
:10254800FEF728FD7BE72000FEF724FD77E7200053
:10255800FEF720FD90230022E25070E7D90600D450
:1025680051E7C10600D44EE71023136223689B6825
:102578005B0655D58023E25813685B689BB2002B35
:1025880000D15CE75C21615A994200D857E75E2187
:10259800635213681B689B060BD5022323675A33C3
:1025A800E15A0233E35AC91A89B22000FFF70AFF39
:1025B80045E7EFF31080012383F3108821680A6848
:1025C800464D2A400A6080F31088EFF3108083F3A9
:1025D800108821688A689A438A6080F31088EFF32C
:1025E800108083F3108821688A684235FF35AA4332
:1025F8008A6080F310888C222021A1500022E26694
:10260800EFF3108183F31088226813681020834346
:10261800136081F310888023E058FEF7D1FEBCE7F1
:102628005C23E15A0233E25A891A89B2E35A9BB20F
:10263800002B00D103E7002900D100E7EFF3108554
:10264800012383F3108820680268254E3240026017
:1026580085F31088EFF3108583F31088206882686B
:10266800204E3240826085F310888C222020A050B2
:102678000022E2666267EFF3108083F31088226815
:1026880013681025AB43136080F310880223236777
:102698002000FFF797FED2E680235B031362200039
:1026A80000F08CFECBE6A36F002B00D1C7E620001C
:1026B8009847C4E62000FFF766FEC0E6200000F059
:1026C8007FFEBCE6200000F07AFEB8E60F080000A6
:1026D8000100001020010004B9230008FFFEFFFFDD
:1026E800DFFEFFFFFEFFFFEF10B56023C35A8C2209
:1026F8008258222A05D00268936908210B43936106
:1027080010BD0268526ADBB21340826D1370836D8C
:10271800013383655E22835A013B9BB28352835AFD
:102728009BB2002BECD1EFF3108C5D3A82F310884A
:1027380001680B68194C23400B608CF31088EFF389
:10274800108C82F3108801688B6893438B608CF33C
:1027580010888C231F32C250002343670367C36E5F
:10276800012B17D10023C366EFF31084013383F3E1
:10277800108801680B68103A93430B6084F3108843
:102788000368D9690A4200D01A625C23C15AFFF76C
:1027980019FEB5E7FEF7E6FBB2E7C046DFFEFFFF2E
:1027A80010B56023C25A2C33C358222B05D00268B7
:1027B800936908210B43936110BD03685B6A13405A
:1027C800826D1380836D023383655E22835A013BD9
:1027D8009BB28352835A9BB2002BEDD1EFF3108C3E
:1027E8005D3A82F3108801680B68194C23400B602E
:1027F8008CF31088EFF3108C82F3108801688B68D3
:1028080093438B608CF310888C231F32C2500023B3
:1028180043670367C36E012B17D10023C366EFF329
:102828001084013383F3108801680B68103A9343CE
:102838000B6084F310880368D9690A4200D01A62D1
:102848005C23C15AFFF7BEFDB6E7FEF78BFBB3E783
:10285800DFFEFFFFF0B5CE46474680B583B00400E3
:102868006023C35A01930368DD691A6890469A6821
:1028780091468C228258222A08D09A6908210A4354
:102888009A6103B0C0BCB946B046F0BD6823C65AC9
:1028980040E09023E358002B79D15E23E35A9BB2A2
:1028A800002B37D1EFF31080012282F310882168C2
:1028B8000B684F4F3B400B6080F31088EFF310819B
:1028C80082F31088226893684A480340936081F332
:1028D80010888C232022E250002363672367E36E6D
:1028E800012B5BD10023E366EFF31080013383F300
:1028F800108821680B68103A93430B6080F31088A6
:102908002368D9690A4200D01A625C23E15A200080
:10291800FFF758FD002E45D0AB0643D523685B6A08
:102928006A4612791340A26D1370A36D0133A36533
:102938005E22A35A013B9BB2A3522368DD696A0752
:10294800ABD0EA0708D54246D20505D50121196260
:102958009022A3580B43A350AB070AD54B46DB077D
:1029680007D5236802221A628E32A35804210B432A
:10297800A3506B078DD54B46DB078AD52368042205
:102988001A628C32A35802210B43A35081E720001E
:10299800FEF700FB90230022E2507EE72000FEF7BE
:1029A800E1FAB7E75E23E35A9BB2002B00D168E750
:1029B8006822A25A9A4200D863E7EFF310800122F6
:1029C80082F3108821688B680B4D2B408B6080F355
:1029D80010880A4B6367EFF3108182F3108822682E
:1029E800136820200343136081F3108849E7C04629
:1029F800FFFEFFFFFEFFFFEFFFFFFFEFF1260008DE
:102A0800F8B5DE4657464E464546E0B50400602315
:102A1800C55A0368DF691A6890469A6891468C22FD
:102A28008258222A09D09A6908210A439A61F0BC7F
:102A3800BB46B246A946A046F8BD6823C65A43E03D
:102A48009023E358002B7AD15E23E35A9BB2002BE4
:102A58003AD1EFF3108001339B4683F31088216845
:102A68000B689A464E4B52461A400A6080F310880B
:102A7800EFF310818BF3108822689368494803406C
:102A8800936081F310888C232022E250002363672F
:102A98002367E36E012B59D10023E366EFF310801F
:102AA800013383F3108821680B68103A93430B6055
:102AB80080F310882368D9690A4200D01A625C231F
:102AC800E15A2000FFF77EFC002E43D0BB0641D51B
:102AD80023685B6A2B40A26D1380A36D0233A36544
:102AE8005E22A35A013B9BB2A3522368DF697A078F
:102AF800AAD0FA0708D54246D20505D501211962A0
:102B08009022A3580B43A350BB070AD54B46DB07BB
:102B180007D5236802221A628E32A35804210B4378
:102B2800A3507B078CD54B46DB0789D52368042245
:102B38001A628C32A35802210B43A35080E720006D
:102B4800FEF728FA90230022E2507DE72000FEF7E6
:102B580009FAB9E75E23E35A9BB2002B00D166E776
:102B68006822A25A9A4200D861E7EFF31080012246
:102B780082F3108821688B680B4D2B408B6080F3A3
:102B880010880A4B6367EFF3108182F3108822687C
:102B9800136820200343136081F3108847E7C04679
:102BA800FFFEFFFFFEFFFFEFFFFFFFEFA927000873
:102BB80030B58423C35C012B10D0842201238354B5
:102BC8008821233343500468A36902252B43A3615A
:102BD8002023435000238354002030BD0220FCE70B
:102BE8009023C0587047000010B50400836802693C
:102BF800134342691343C269134301680A686B4867
:102C0800024013430B602268536869490B40E1682E
:102C18000B435360226AA3691A4321688B6865488D
:102C2800034013438B602268D36A0F218B43616A88
:102C38000B43D3622368604A93420AD05F4A9342A7
:102C48003ED05F4A93425CD05E4A934249D01023FB
:102C58000BE05D4B5A6D03231340022B43D02BD856
:102C6800002B42D0012B42D10333E06980221202AB
:102C7800904248D0042B00D191E07AD8002B00D1A3
:102C880086E0022B73D15148636A5B00504A995A17
:102C9800FDF732FA63685B08C0186168FDF72CFA23
:102CA8000200103A4B4B9A4200D97DE02368000499
:102CB800000CD860002062E0032B1AD10533D4E75A
:102CC800414B5A6D0C231340082B14D005D8002B08
:102CD80013D0042BC9D01023C7E70C2B0FD1043B0A
:102CE800C3E70023C1E70223BFE70023BDE71023A2
:102CF800BBE71023B9E70223B7E70023B5E71023A2
:102D0800B3E70023B1E7042B2ED023D8002B25D01E
:102D1800022B1DD12D48636A5B002D4A995AFDF795
:102D2800EBF9400063685B08C0186168FDF7E4F9D7
:102D38000200103A274B9A4234D882B20F239A43A2
:102D48004008083B184010432368D860002016E06C
:102D5800012014E0082BDED0012010E0FFF71EF858
:102D68000028D8D100200AE0FEF7F0FEF8E701209D
:102D780005E0082B02D18020000285E7012001230D
:102D88006A22A352023AA35200236367A36710BDC5
:102D9800FFF704F8002800D076E70020EFE7FEF7F9
:102DA800D5FEF7E70120EAE70120E8E7F369FFCF5E
:102DB800FFCFFFFFFFF4FF1100380140004400403F
:102DC80000480040004C0040001002400024F4007D
:102DD8003C370008EFFF0000836ADB0706D502686E
:102DE80053682C490B40C16A0B435360836A9B07A5
:102DF80006D50268536828490B40016B0B435360A2
:102E0800836A5B0706D50268536824490B40416B07
:102E18000B435360836A1B0706D502685368204931
:102E28000B40816B0B435360836ADB0606D502684F
:102E380093681C490B40C16B0B439360836A9B06E4
:102E480006D50268936818490B40016C0B439360E0
:102E5800836A5B060BD50268536814490B40416CC2
:102E68000B43536080235B03426C9A420AD0836A07
:102E78001B0606D5026853680D490B40C16C0B430D
:102E880053607047026853680A490B40816C0B43D2
:102E98005360ECE7FFFFFDFFFFFFFEFFFFFFFBFFB7
:102EA800FF7FFFFFFFEFFFFFFFDFFFFFFFFFEFFFEA
:102EB800FFFFF7FFFFFF9FFFF8B5CE46474680B5F7
:102EC80006000D0017009946089B98463368DC6990
:102ED8002C40641B63425C41BC4257D143460133DA
:102EE800F4D0FEF7F1F94B46C01A40452ED84346B8
:102EF800002B2BD033681A685207E7D5DA69120518
:102F0800E4D5802212011A62EFF31080012282F3C5
:102F1800108831680B68204C23400B6080F31088C0
:102F2800EFF3108082F3108831688B6893438B60CD
:102F380080F3108820238732B3500432B350043210
:102F4800B35064330022F254032020E0EFF31080E2
:102F5800012282F3108831680B680F4C23400B6004
:102F680080F31088EFF3108082F3108831688B6843
:102F780093438B6080F3108820238732B350043248
:102F8800B35064330022F254032000E00020C0BC98
:102F9800B946B046F8BDC0465FFEFFFFF0B5C6466D
:102FA80000B582B004000D0090461E008823C35867
:102FB800202B5CD100295FD0002A5FD080235B01E1
:102FC80082689A4204D10369002B01D1CB0757D4F8
:102FD80090230022E250083B2132E250FEF774F9B8
:102FE800070054234246E2520233E25280235B0137
:102FF800A2689A4202D00023984613E02369002B66
:1030080025D0002398460DE043461B882268DB053F
:10301800DB0D936202239C46E0445623E25A013AB0
:1030280092B2E2525623E35A9BB2002B12D000967A
:103038003B00002280212000FFF73EFF002821D11D
:10304800002DE1D02A7823689A620135E5E7A84681
:103058000025E7E700963B00002240212000FFF70B
:103068002BFF002810D188232022E25000E0022004
:1030780002B080BCB846F0BD0120F9E70120F7E7AF
:103088000120F5E70320F3E70320F1E730B583B02B
:10309800040090230022C250FEF716F905002268AA
:1030A8001268130710D423681B685B0719D4202300
:1030B8008822A3500432A3500023E3662367083A0A
:1030C800A354002003B030BD80210C4B00930300B3
:1030D800002289032000FFF7EFFE0028E3D0032039
:1030E800F0E78021054B00932B000022C903200044
:1030F800FFF7E2FE0028DAD00320E3E7FFFFFF0135
:1031080070B504000D00002844D080231B02C2695A
:103118009A4241D08368002B40D18833C358002B92
:103128002ED088232422E2502268136801218B4381
:1031380013602000FFF758FD012820D0A36A002B58
:1031480024D12268536816490B405360226893685B
:103158002A218B439360226851688023DB010B434B
:10316800536023685968202291430D435D602268AB
:10317800136801210B4313602000FFF787FF70BD20
:1031880084330022C254FDF7DFFFCAE72000FFF7AF
:1031980023FED6E70120F2E70120F0E70120EEE761
:1031A800FFF7FFFF10B581655C23C2520233C2529C
:1031B800002343678368802149018B4208D0002B94
:1031C80015D10369002B0ED16033FF21C15215E0E0
:1031D8000369002B03D160334649C1520EE06023D6
:1031E800FF21C1520AE060237F21C15206E08021FD
:1031F80049058B4231D060230021C1529023002120
:10320800C150043B2231C150EFF3108C012484F3E8
:10321800108801688B6823438B608CF310888023A7
:103228009B05416E994223D080235B0182689A42B4
:103238004CD0314B43670369002B4DD0EFF310811D
:10324800012383F31088026810682033FF33034397
:10325800136081F31088002010BD0369002B03D18F
:1032680060337F21C152C9E760233F21C152C5E7BE
:103278006823C35A9342D7D880235B0182689A4255
:103288001ED01E4B43670369002B0BD0EFF3108150
:10329800012383F3108802681468FF332343136003
:1032A80081F31088EFF31081012383F310880268FB
:1032B800906880235B050343936081F31088CAE715
:1032C8000369002BDDD10E4B4367DCE70369002B54
:1032D800AFD10C4B4367AEE7EFF31081012383F3C3
:1032E80010880268136820200343136081F3108854
:1032F800B1E7C046FF010000F12600085D2800087C
:10330800092A0008A927000870B58C23C358202B68
:1033180023D1002923D0002A23D080235B0184688D
:103328009C4204D10369002B01D1CB071BD4002395
:10333800C36603685B681B020CD5EFF3108C01238E
:1033480083F31088046825688023DB042B432360FB
:103358008CF31088FFF726FF00E0022070BD0120E3
:10336800FCE70120FAE70120F8E70000F8B50400BF
:10337800436E002B05D101336A228352023A8352ED
:10338800F8BD026895686D0E07231D409268520FBC
:103398001340084FF85CC000074EF15CFCF736FF9D
:1033A8006A23E052785DC000715DFCF72FFF682347
:1033B800E052E5E75C37000854370008704770476B
:1033C8007047000070B58423C35C012B15D084249A
:1033D800012606558825242343510268136811687D
:1033E800B1431160064A13400022426601680B602F
:1033F800202343510255002070BD0220FCE7C0463F
:10340800FFFFFFDFF8B504000A008423C35C012B2B
:103418001BD084250120605588262423A3512368C6
:103428001F6819688143196020688368DB00D90820
:10343800114381602000FFF799FF23681F60202354
:10344800A351002363550020F8BD0220FCE70000CB
:10345800F8B504000B008422825C012A1BD0842565
:103468000120605588262422A25122681768116815
:1034780081431160226891680848014019439160AE
:103488002000FFF773FF23681F602023A351002348
:1034980063550020F8BD0220FCE7C046FFFFFFF19E
:1034A80070B50C4D0C4E761BB61005D0002408CD17
:1034B80001349847A642FAD100F0EAF8074D084EC1
:1034C800761BB61005D0002408CD01349847A642D3
:1034D800FAD170BD683700086837000868370008F7
:1034E80070370008F0B50500830749D0541E002A3C
:1034F80045D003000326CAB202E00135013C3ED3A1
:1035080001332A703342F8D1032C30D9FF220A4004
:10351800150215432A0415430F2C34D92700103FF0
:103528003F093E01B4461E001A0010366644156075
:1035380055609560D5601032B242F8D101373F012D
:10354800DB190F270C22274022403C00002A0ED00E
:103558003E1FB608B400A4461A001C1D644420C2CD
:10356800A242FCD103240136B6009B193C40002C32
:1035780005D0C9B21C19197001339C42FBD1F0BDAA
:1035880003001400C0E72700E2E7C046034B10B56C
:10359800002B02D0024800F005F810BD0000000022
:1035A800BD35000810B5010000230022002000F0FE
:1035B80019F810BD70B5074D074C641BA41005D051
:1035C800013CA300EB589847002CF9D100F066F8AD
:1035D80070BDC04670370008743700087047C04691
:1035E8007047C046F0B5D6464F464646C0B5264F4A
:1035F80082B006003868924698468946FFF7EEFF83
:10360800224B1B680193A423019A5B00D558002D17
:103618002ED06C681F2C30DC002E0FD1631C6B6021
:103628004B460234A40038686351FFF7D9FF0020E5
:1036380002B0E0BCBA46B146A846F0BD8822514661
:103648002800A300EB189950873AA2408930FF3030
:103658000168114301608421404649005850022EF8
:10366800DCD12B008D33FF3319680A431A60D5E784
:1036780015004D35FF35D550CBE73868FFF7B0FF5B
:1036880001204042D4E7C04688040020643700087F
:10369800F8B5C046F8BC08BC9E467047F8B5C046A9
:0836A800F8BC08BC9E46704707
:1036B000202020202020202020202020202020200A
:1036C00000000000307833340000000030783336DA
:1036D00000000000307831300000000000000000E1
:1036E00000000000000000000000000000000000DA
:1036F00000000000000000000000000001000000C9
:1037000002000000030000000400000006000000AA
:103710000700000008000000090000000000000091
:103720000000000000000000000000000100000098
:10373000020000000300000004000000010002007D
:103740000400060008000A000C00100020004000E1
:1037500080000001080402040801010101010103C5
:083760000701000060000020D9
:0837680095350008E10000089E
:04377000B900000894
:103774002020202020202020202020202020202045
:10378400C4A3CABDD1A1D4F1A3BA0000D4CBD0D074
:10379400D7B4CCACA3BA0000CDA3D6B9BCC6CAB1C9
:1037A400A3BA20202020B7D6D6D30755F5B4FFFD01
:1037B400FC3776FFFDFC2050FFFDFC0101000000FA
:1037C4000024F400010000000400000000000000D8
:1037D400000000004C030020B40300201C0400205F
:1037E40000000000000000000000000000000000D5
:1037F40000000000000000000000000000000000C5
:1038040000000000000000000000000000000000B4
:1038140000000000000000000000000000000000A4
:103824000000000000000000000000000000000094
:103834000000000000000000000000000000000084
:103844000000000000000000000000000000000074
:103854000000000000000000000000000000000064
:103864000000000000000000000000000000000054
:103874000000000000000000010000000000000043
:103884000E33CDAB34126DE6ECDE05000B00000008
:103894000000000000000000000000000000000024
:1038A4000000000000000000000000000000000014
:1038B4000000000000000000000000000000000004
:1038C40000000000000000000000000000000000F4
:0C3BF4000000000000000000B8050020E8
:04000005080011E5F9
:00000001FF
