:020000040800F2
:1000000000900020391100080510000807100008B2
:1000100000000000000000000000000000000000E0
:1000200000000000000000000000000009100008AF
:1000300000000000000000000B1000080D10000878
:1000400089110008000000008911000889110008CA
:100050008911000889110008891100088911000818
:1000600000000000891100088911000889110008AA
:10007000891100088911000889110008000000009A
:1000800089110008891100088911000889110008E8
:1000900089110008891100088911000889110008D8
:1000A00089110008891100088911000889110008C8
:0800B000151000088911000879
:1000B80010B5064C2378002B07D1054B002B02D036
:1000C800044800E000BF0123237010BD7404002021
:1000D8000000000020320008044B10B5002B03D0AC
:1000E8000349044800E000BF10BDC04600000000FE
:1000F8007804002020320008002243088B4274D381
:1001080003098B425FD3030A8B4244D3030B8B4210
:1001180028D3030C8B420DD3FF22090212BA030C19
:100128008B4202D31212090265D0030B8B4219D3FA
:1001380000E0090AC30B8B4201D3CB03C01A52411A
:10014800830B8B4201D38B03C01A5241430B8B4262
:1001580001D34B03C01A5241030B8B4201D30B034B
:10016800C01A5241C30A8B4201D3CB02C01A524172
:10017800830A8B4201D38B02C01A5241430A8B4235
:1001880001D34B02C01A5241030A8B4201D30B021E
:10019800C01A5241CDD2C3098B4201D3CB01C01A38
:1001A800524183098B4201D38B01C01A5241430942
:1001B8008B4201D34B01C01A524103098B4201D330
:1001C8000B01C01A5241C3088B4201D3CB00C01A9D
:1001D800524183088B4201D38B00C01A5241430815
:1001E8008B4201D34B00C01A5241411A00D201463A
:1001F800524110467047FFE701B5002000F0F0F8C3
:1002080002BDC0460029F7D076E7704703460B4386
:100218007FD4002243088B4274D303098B425FD3F7
:10022800030A8B4244D3030B8B4228D3030C8B4223
:100238000DD3FF22090212BA030C8B4202D3121209
:10024800090265D0030B8B4219D300E0090AC30BDE
:100258008B4201D3CB03C01A5241830B8B4201D38B
:100268008B03C01A5241430B8B4201D34B03C01A74
:100278005241030B8B4201D30B03C01A5241C30AEC
:100288008B4201D3CB02C01A5241830A8B4201D35D
:100298008B02C01A5241430A8B4201D34B02C01A47
:1002A8005241030A8B4201D30B02C01A5241CDD2EC
:1002B800C3098B4201D3CB01C01A524183098B4237
:1002C80001D38B01C01A524143098B4201D34B0120
:1002D800C01A524103098B4201D30B01C01A524183
:1002E800C3088B4201D3CB00C01A524183088B420A
:1002F80001D38B00C01A524143088B4201D34B00F3
:10030800C01A5241411A00D2014652411046704764
:100318005DE0CA0F00D04942031000D34042534069
:1003280000229C4603098B422DD3030A8B4212D329
:10033800FC22890112BA030A8B420CD3890192115B
:100348008B4208D3890192118B4204D389013AD098
:10035800921100E08909C3098B4201D3CB01C01A6D
:10036800524183098B4201D38B01C01A5241430980
:100378008B4201D34B01C01A524103098B4201D36E
:100388000B01C01A5241C3088B4201D3CB00C01ADB
:10039800524183088B4201D38B00C01A5241D9D2F3
:1003A80043088B4201D34B00C01A5241411A00D274
:1003B8000146634652415B10104601D34042002B70
:1003C80000D54942704763465B1000D3404201B5EF
:1003D800002000F005F802BD0029F8D016E77047A4
:1003E8007047C04610B50400C30741D58021A0203E
:1003F80001220901C00501F0D0F8A30740D58021EA
:10040800A0200122C900C00501F0C7F863073FD545
:10041800802101224900334801F0BFF823073ED567
:1004280001228021304801F0B8F8E3063DD50122C9
:1004380040212D4801F0B1F8A3063CD58021A02029
:1004480001228900C00501F0A8F863063BD5802188
:10045800A02001224900C00501F09FF864B2002CD9
:1004680039DB802100220902204801F096F810BDEE
:100478008021A02000220901C00501F08EF8BCE708
:100488008021A0200022C900C00501F086F8BDE740
:10049800802100224900134801F07FF8BEE70022BE
:1004A8008021114801F079F8BFE7002240210E4869
:1004B80001F073F8C0E78021A02000228900C00560
:1004C80001F06BF8C1E78021A02000224900C00597
:1004D80001F063F8C2E7802101220902034801F014
:1004E8005CF8C4E7000C00500008005000040050FD
:1004F80070B50500802100224900124801F04DF82E
:100508008021A024E40500220902200001F045F81A
:100518002800FFF767FF052000F038FC80256D01F3
:1005280001222900200001F038F8052000F02EFCF7
:1005380000222900200001F030F8052000F026FCF8
:1005480070BDC0460008005070B50500802101222A
:100558004900124801F021F88021A024E405002276
:100568000902200001F019F82800FFF73BFF0520D9
:1005780000F00CFC80256D0101222900200001F00B
:100588000CF8052000F002FC00222900200001F0F0
:1005980004F8052000F0FAFB70BDC04600080050C2
:1005A80070B50E001500FFF7A3FF052000F0EEFB65
:1005B800002407E0305DFFF7C7FF052000F0E6FBE9
:1005C8000134E4B2AC42F5D370BDF0B5C64600B50F
:1005D80082B080460C001700002300930193072681
:1005E8000DE00A212000FFF70DFECDB20A21200000
:1005F800FFF782FD84B2731E6A469555DEB2002C61
:10060800EFD14046FFF774FF052000F0BFFB083428
:10061800E41B09E06B46185D3030C0B2FFF794FF69
:10062800052000F0B3FB0134072CF3DD02B080BCD9
:10063800B846F0BD70B58025AD01254C01222900D2
:10064800200000F0AAFF00222900200000F0A5FFEA
:10065800282000F0E9FD01222900200000F09DFF7C
:10066800012000F0E1FD80210122C901200000F0F5
:1006780094FF3020FFF73CFF012000F0D5FD0C204F
:10068800FFF736FF012000F0CFFD0120FFF730FF14
:100698000B2000F0C9FD0620FFF72AFF012000F01B
:1006A800C3FD0220FFF724FF012000F0BDFD0B224F
:1006B80008498020FFF774FF0B2207499020FFF7B5
:1006C8006FFF0E2205498820FFF76AFF70BDC046FC
:1006D800000400501C000020100000200000002032
:1006E80010B50022012304E0C45CA21892B20133C1
:1006F800DBB28B42F8D3130AD0B2C018C0B2C043E1
:10070800C0B210BD10B504000020002304E0E25C74
:10071800101880B20133DBB28B42F8D3FF21FFF708
:1007280071FDC843C0B210BD70B504000D00002BA8
:1007380017D18E1808212800FFF7D2FF307020004B
:1007480001F0FAFF01267642330001220849200011
:1007580002F0E8F933000A222900200002F0E2F949
:1007680070BD8E1809212800FFF7CCFF3070E6E72E
:100778002800002070B582B004006B46DD1DD971D9
:1007880001F0DAFF012676423300012205492000F4
:1007980002F0C8F9330001222900200002F0C2F952
:1007A80002B070BD2800002030B5174B00241C7023
:1007B800164B1880164B1980164B1B789900C918D0
:1007C800154C6418657815490D704870000A8870D2
:1007D800A078C870002A03D0E2780A7105230CE0DB
:1007E8009A00D2180C4B9B181A790C4B1A71F5E722
:1007F8005A1C0A49FF20C854D3B2082BF8D9024B17
:1008080001221A7030BDC0469804002094040020CC
:1008180092040020990400202C000020A804002045
:10082800024B1870024B19707047C046980400209C
:100838009704002010B51A4B1B78002B04D1194BD4
:100848001B78002B15D110BD174B1A7893009A18F6
:10085800164B9B185B7816490B7001230922154823
:10086800FFF762FF0F4B01221A70142000F0DCFC26
:10087800E5E70D4C227893009B180C4A995C0D48CB
:10088800FFF778FF142000F0CFFC23780133DBB2A8
:100898002370032BD7D1044B00221A70D3E7C0462C
:1008A8009804002097040020990400202C000020C0
:1008B800A8040020BC04002010B500280DD09142E7
:1008C8000CD0140010220D499820FFF769FE0C4B3C
:1008D8001988A0B20022FFF767FF10BD094B1B78EB
:1008E800002B03D1064A1388013B1380044B198857
:1008F80005229520FFF769FE0024E3E73832000857
:10090800B20400209604002010B50A4B00221A7089
:10091800094B07321A70E1239B00984200D010BDA2
:10092800064B1A88064B1988064B1888FFF7C4FF30
:10093800F5E7C0469004002027000020B4040020FA
:10094800940400209204002010B5194B9B78F52BD5
:1009580004D0372B10D0202B1CD010BD154A13788B
:1009680001210B431370042213499820FFF718FE46
:10097800642000F059FCF0E70E4A137802210B437B
:10098800137004220D499B20FFF70AFE642000F033
:100998004BFCE2E7074A137804210B431370042247
:1009A80007499E20FFF7FCFD642000F03DFCD4E7DA
:1009B8009C040020900400204C32000854320008A7
:1009C8005C32000810B504004B4809210230FFF7DB
:1009D80099FE0B2C1FD8484B9B78F52B09D0372B49
:1009E8000DD0202B11D00C220021434802F03EFBF1
:1009F80010BD42490878062202400A70EFE73F49D5
:100A08000878052202400A70EBE73C4A11781D3B42
:100A18000B401370E7E7384BDB7A8342E3D1364B60
:100A28009B78B42BDFD0762BDDD0502BDBD0324B2C
:100A3800DB78DA0718D40C22110019401A42D2D0F8
:100A48000429D0D02C4A12790F20010011401042FD
:100A58001DD0032916D00BD801290FD00229C2D1E5
:100A68002748FFF751FFBEE72648FFF74DFFBAE7D3
:100A78000529B8D12448FFF747FFB4E72348FFF713
:100A880043FFB0E7E2208000FFF73EFFABE73021ED
:100A98000800104011420BD0102805D02028A2D100
:100AA8001B48FFF731FF9EE71A48FFF72DFF9AE72B
:100AB8003F218A43402A1AD0DB0600D593E70E4926
:100AC8008A7912024B791343134A12889A4200D04A
:100AD80089E7FFF739FF114B1A78084B1B789A42C0
:100AE80000D080E7E1208000FFF70EFF7BE7E320DE
:100AF8008000FFF709FF76E79C040020270000200C
:100B080087030000850300008903000086030000B6
:100B18008B0300008A030000940400209004002046
:100B2800F0B5DE4657464E464546E0B58BB0142232
:100B3800002105A802F09AFA3F4B596B0422114391
:100B48005963596B0A400192019A5A6B01252A434D
:100B58005A635A6B2A400292029A596B0222114335
:100B68005963596B0A400392039A596B082211433F
:100B780059635B6B1A400492049BE22464002F4B78
:100B88009B4600222100180000F007FD2C4B9A46D6
:100B9800A023DB05994600225146180000F0FDFC11
:100BA800284B9846284E00221900300000F0F5FC2A
:100BB800264F002280214900380000F0EEFC059401
:100BC800069500240794089405A9584600F022FCCD
:100BD8005346059306950794089405A9484600F0DE
:100BE80019FC4346059306950794089405A9300017
:100BF80000F010FC80235B00059306950794089489
:100C080005A9380000F006FC2023059306940794F4
:100C180005A9380000F0FEFBF6239B000593069417
:100C2800079405A9300000F0F5FB0BB0F0BCBB46FB
:100C3800B246A946A046F0BD001002400008005088
:100C4800109F000001E0000000040050000C00505C
:100C580070B504000D0000F099FC0600012802D0D0
:100C68000026300070BD2900200000F08FFC01280C
:100C7800F9D0F6E770B505000C00012913D0002C57
:100C880010D1002D35D0214B1A88214B9A422CD0F7
:100C98001E4A1388643313801C4B1988052295203B
:100CA800FFF793FC70BD002813D01A4B1A881A4B13
:100CB8009A420AD0174A138801331380154B1988B2
:100CC80003228520FFF781FCD9E7124B00221A8006
:100CD800F0E7104B1B88002B03D10E4B0E4A1A80ED
:100CE800ECE7013B0B4A1380E8E7084B00221A8027
:100CF800CEE7064B1B88002B03D1044B074A1A800A
:100D0800CAE7643B014A1380C6E7C046B204002024
:100D1800E8FD0000B4040020E7030000E8FDFFFF41
:100D2800F8B504000D0016001F0000F02FFC012884
:100D380007D0F8BD39003000FFF79CFF322000F0E3
:100D480073FA2900200000F021FC0128F2D0F0E716
:100D58000A4B984200D070470368DB69DB06FAD576
:100D6800064B1B6810221A62054B0F3A1A70054B86
:100D78001978054A117000221A70ECE7BC040020AB
:100D8800B7040020B9040020B8040020034B5843DE
:100D980003000138002BFBD17047C046370C000018
:100DA80072B6FEE700B593B03422002105A802F020
:100DB8005DF91022002101A802F058F98020800076
:100DC80000F0F2FB02230593FE33089300230993F6
:100DD80040220A920C9305A800F010FC00280DD1BF
:100DE800072301930023029303930493002101A88E
:100DF80000F0B2FE002803D113B000BDFFF7D0FF0A
:100E0800FFF7CEFF10B5064B984200D010BD012267
:100E1800044902F03DF80028F8D0FFF7C1FFC046AA
:100E2800BC040020B604002010B500F0D7F9FFF785
:100E3800B9FFAF20800000F0F7F9FFF771FE00F06E
:100E4800F3F83D480368102119621A680A431A60CA
:100E5800FFF7D8FF01220421384800F09EFBA020AC
:100E680001221021C00500F098FB0122012134481D
:100E780000F093FBFFF7DEFB20E0012200210020B9
:100E8800FFF792FC3AE02F4B01221A7010222E49EC
:100E98009820FFF785FB2D4B19882D4B18880022C9
:100EA800FFF782FC20212B48FFF7D2FE002835D11E
:100EB800FFF7C0FC284B1B78002B34D1204C0123B2
:100EC800012210212000FFF72BFF012300224021DF
:100ED8002000FFF725FF0023012280212000FFF7D3
:100EE8001FFF80210023002249002000FFF718FF80
:100EF80008212000FFF7ACFE0028BED18021890020
:100F08000F48FFF7A5FE0028CCD0104B1A88134BCA
:100F18009A42B8D00B4B00221A70B7E70021002084
:100F2800FFF77EFCC4E70E4B1878FFF74BFD0A4B22
:100F380000221A70C2E7C046BC0400200008005016
:100F4800000400509604002038320008B204002043
:100F5800B4040020000C0050B704002048EE000044
:100F6800B804002010B5074B984202D0FFF74AFF9B
:100F780010BD054A137805490C780549CC5401334E
:100F88001370F3E7BC040020B9040020B604002065
:100F98009C04002010B5040001F0E6FB030700D410
:100FA80010BD2268936908210B43936122689369F5
:100FB80008310B4393612000FFF724FF90230022A0
:100FC800E250EDE700B583B00B4B196C01221143D9
:100FD8001964196C0A400092009ADA6B802149055D
:100FE8000A43DA63DB6B0B400193019BC020C0000E
:100FF80000F02CF903B000BD00100240FEE7FEE748
:101008007047704710B500F0FDF810BD10B5044CDE
:101018002000FFF79DFE200000F09AFF10BDC0469B
:10102800BC0400207047000010B51A481A4B036032
:101038009623DB01436000238360C36003610C22B5
:1010480042618361C361036243628362002101F0EC
:101058001BFE002811D100210E4801F097FF00283F
:101068000ED100210B4801F0B7FF00280BD1094829
:1010780001F06CFF002809D110BDFFF791FEEAE7E7
:10108800FFF78EFEEDE7FFF78BFEF0E7FFF788FE30
:10109800F2E7C046BC0400200044004010B58EB002
:1010A80004001422002109A801F0E0FF1C220021FD
:1010B80002A801F0DBFF22681B4B9A4201D00EB058
:1010C80010BD0223029302A800F026FE002827D1B3
:1010D800164BD96B802080020143D963DA6B02403A
:1010E8000092009A596B0122114359635B6B1340BC
:1010F8000193019B0C2309930A3B0A9300230B934A
:101108000C930D92A02009A9C00500F083F90022D4
:1011180000211C2000F0A6F81C2000F0D3F8CEE730
:10112800FFF73EFED4E7C0460044004000100240EE
:101138000D488546FFF776FF0C480D490D4A0023F8
:1011480002E0D458C4500433C4188C42F9D30A4A74
:101158000A4C002301E013600432A242FBD301F0E1
:1011680063FFFFF761FEFEE700900020000000200B
:1011780074040020FC320008740400205805002084
:10118800FEE7000010B50400114B1978002901D1C1
:10119800012010BDFA208000FEF7AEFF01000D4BC4
:1011A8001868FEF7A9FF00F099F800280DD1032C64
:1011B80001D90120EDE7013000222100404200F072
:1011C80051F8054B1C600020E3E70120E1E7C04629
:1011D800400000203C0000204400002010B5084AD0
:1011E800116880235B000B4313600320FFF7CAFFDD
:1011F800041E02D00124200010BDFFF7E3FEFAE729
:1012080000200240034B1B78034A11685B181360E7
:101218007047C0464000002050050020014B186868
:101228007047C0465005002070B50400FFF7F6FF70
:101238000500631C02D0044B1B78E418FFF7EEFF8F
:10124800401BA042FAD370BD40000020034A136837
:1012580003490B40034313607047C0460000014038
:10126800FFF9FFFF70B5002811DB8308134EC03368
:101278009B009D5903242040C000FF221400844095
:10128800A54389010A4082402A439A5170BD0F2321
:101298000340083B9B0806339B00094A9446634475
:1012A8005C6803221040C000FC3215008540AC4346
:1012B80089010A40824022435A60E7E700E100E0E2
:1012C80000ED00E0002805DB1F2318401E3B83408B
:1012D800014A13607047C04600E100E001388023EE
:1012E8005B0498420FD2094A50600948036A1B02FE
:1012F8001B0AC02109060B430362002393600733CE
:101308001360002070470120FCE7C04610E000E0B1
:1013180000ED00E030B5002836D02523C35C022B51
:1013280006D00423C36320330022C254012030BDF9
:10133800026813680E218B431360426C13681349CB
:101348000B40136001680A6801239A430A60104C35
:1013580062681C21056C29408B4013436360836CD1
:10136800C26C5A60036D002B06D01A6807490A4000
:101378001A60436D826D5A6025230122C254013BD5
:101388000022C2540020D2E70120D0E7FFFEFFFF71
:101398000000024070B52523C35C022B03D0042350
:1013A800C363012070BD026813680E218B4313606C
:1013B80001680A6801239A430A60416C0A68134C61
:1013C80022400A60124C62681C21056C29408B403F
:1013D80013436360836CC26C5A60036D002B06D0A4
:1013E8001A680A490A401A60436D826D5A602523BB
:1013F8000122C254013B0022C254836B002B02D04D
:1014080098470020CEE70020CCE7C046FFFEFFFF4C
:1014180000000240F0B500235AE084685F0003260C
:10142800BE40B4432600CC68BC4034438460446862
:1014380094434A681609012232409A402243426086
:1014480056E0DC080834A400265805321A409200F9
:101458000F279740BE430F6997403A003243225006
:101468005AE0032600E00026A64034003C43434EE1
:101478001832920094513468EA432600AE434F680C
:10148800FF0201D52C4326003C4C266064682600E8
:1014980016404F68BF0201D52C432600374C6660C2
:1014A8008426A459260016404F68BF0301D52C4353
:1014B8002600324C8427E6518026A45922404E68E3
:1014C800F60301D52A0022432C4D80242A510133EA
:1014D8000C682200DA404FD001229A4025001540BE
:1014E8001442F4D003244E683440013C012C94D9B2
:1014F80003224C682240032A09D0C2685E000324F4
:10150800B440A24314008A68B2402243C260032256
:101518004C682240022A94D004685E000322170017
:10152800B740BC434F683A40B24022430260C022F1
:1015380092024C681442CAD09A0814001834A400C5
:101548000E4EA75903241C40E4000F26A640B743BB
:10155800A026F605B04286D0094EB04208D0094E02
:10156800B04207D0084EB04200D17AE705267BE7A3
:10157800012679E7022677E7F0BDC0460018024049
:101588000004005000080050000C005003690B4292
:1015980001D0012070470020FCE7002A01D08161BA
:1015A80070478162FCE7000010B5104A13681049C3
:1015B8000B400343136080239B00984201D0002016
:1015C80010BD0C4B1B685800C01840000A49FEF7B4
:1015D80093FD0130054B5B695B0503D5002803D0FB
:1015E8000138F7E70020EBE70320E9E70070004047
:1015F800FFF9FFFF3C00002040420F0070B582B0A9
:10160800041E00D129E20368DB0739D5C14A916875
:1016180038230B40D16803220A40102B26D0082B10
:1016280026D063688022520293427FD0A022D20241
:10163800934200D181E0B74B1A68B7490A401A6053
:101648001A68B6490A401A606368002B00D180E026
:10165800FFF7E4FD0500AF4B1B689B0310D4FFF7B1
:10166800DDFD401B6428F6D90320F7E1032AD6D113
:10167800A84B1B689B0303D56368002B00D1EFE1DF
:1016880023689B0731D5A34A936838210B40D1685A
:1016980003220A40102B6AD0002B6BD19D4A126896
:1016A800520503D5E268002A00D1DBE19948426877
:1016B8009B490A40616909020A434260002B0DD127
:1016C800036898490B4021690B4303600368DB0AF0
:1016D80007221A40944BD340944A1360944B1868DD
:1016E800FFF750FD002800D0BEE123681B0700D497
:1016F80081E0884B9A6838231340182B73D0A3696C
:10170800002B00D1B4E0834A136E01210B4313660A
:10171800FFF784FD05007F4B1B6E9B076BD4FFF71B
:101728007DFD401B0228F6D9032097E1794A11680C
:1017380080235B020B43136086E7764B196880228F
:10174800D2020A431A601968802252020A431A60B8
:101758007AE7FFF763FD05006E4B1B689B038FD587
:10176800FFF75CFD401B6428F6D9032076E1022AC6
:1017780092D193E7E368002B22D0664A136869493F
:101788000B4021690B431360116880235B000B43F6
:101798001360FFF743FD05005E4B1B685B0506D42D
:1017A800FFF73CFD401B0228F6D9032056E15949B2
:1017B8004B685B4A13406269120213434B6094E71B
:1017C800544A13685B490B401360FFF727FD050077
:1017D800504B1B685B0588D5FFF720FD401B02288E
:1017E800F6D903203AE14B4B1B6E9B0703D5A3693F
:1017F800002B00D13AE123685B0700D4A2E0454BF7
:101808009A6838231340202B45D0424BDB6BDB0012
:101818004AD4404AD16B802040050143D163D36B41
:1018280003400193019B0125434B1B68DB053DD514
:10183800A368012B4ED0052B52D0364BDA6D01210F
:101848008A43DA65DA6D03318A43DA65A368002BC7
:1018580050D0FFF7E3FC06002E4BDB6D9B076FD4DF
:10186800FFF7DCFC801B354B9842F5D90320F5E0E7
:10187800284A136E01218B431366FFF7CFFC05003E
:10188800244B1B6E9B07B6D5FFF7C8FC401B0228EC
:10189800F6D90320E2E01F4BDB6D9B0752D5A36806
:1018A800002B4FD10120D9E00025BDE7224A11685D
:1018B80080235B000B431360FFF7B0FC06001E4B50
:1018C8001B68DB05B4D4FFF7A9FC801B0228F6D9F6
:1018D8000320C3E00F4AD36D01210B43D365B5E75D
:1018E8000C4BDA6D04210A43DA65DA6D03390A43D1
:1018F800DA65ABE7FFF792FC0600064BDB6D9B074A
:101908001ED5FFF78BFC801B0C4B9842F5D90320A2
:10191800A4E0C04600100240FFFFFEFFFFFFFBFFF0
:10192800FF80FFFFFFC7FFFF0024F4003C000020FA
:1019380044000020FFFEFFFF0070004088130000F5
:10194800012D1ED0E369002B00D191E04F4A916828
:1019580038220A40102A5ED0022B18D04B4A13684E
:101968004B490B401360FFF759FC0400474B1B68B9
:101978009B0149D5FFF752FC001B0228F6D903202A
:101988006CE0424AD36B43490B40D363DAE73F4AE2
:1019980013683F490B401360FFF740FC05003B4BC1
:1019A8001B689B0106D5FFF739FC401B0228F6D9B6
:1019B800032053E0354AD36837491940236A606ADF
:1019C8000343A06A00020343E06A0343206B034316
:1019D8000B43D360116880235B040B431360D16809
:1019E80080235B050B43D360FFF718FC0400274BEB
:1019F8001B689B0106D4FFF711FC001B0228F6D9CF
:101A080003202BE0002029E0204AD36823490B401B
:101A1800D360002022E0012B2CD01C4BDA68032372
:101A28001340216A8B4227D170231340616A8B428D
:101A380024D1FE21C9011140A36A1B0299421FD17A
:101A4800F8239B031340E16A8B421BD1520F5207C4
:101A5800236B9A4218D1002000E0012002B070BD2B
:101A68000120FBE70120F9E70120F7E70120F5E76E
:101A78000020F3E70120F1E70120EFE70120EDE77F
:101A88000120EBE70120E9E70120E7E70010024029
:101A9800FFFFFFFEFFFFFFEF8C80C11FFCFFFEEF83
:101AA80010B52A4B9B6838221A4207D1274B1A686F
:101AB800D20A072313402648D84010BD234B9A6802
:101AC80038231340082B3BD0204B9A683823134007
:101AD800102B0DD01D4B9A6838231340202B31D082
:101AE8001A4B9A6838231340182B26D00020E4E7B5
:101AF800164AD1680D3B0B40D268120907211140E4
:101B08000131032B0FD01248FEF7F6FA0F4BDA68B3
:101B1800120A7F23134058430C4BD968490F0131EF
:101B2800FEF7EAFAC9E70B48FEF7E6FA074BDA6868
:101B3800120A7F2313405843EEE7FA20C001BCE79E
:101B48000448BAE780200002B7E7C0460010024008
:101B58000024F40000127A0070B504000D0000287B
:101B680000D1AAE0574B1A68072313408B4221D3B0
:101B780023689A070ED55B0705D5534A9168E02379
:101B8800DB010B439360504A936850490B40A168AE
:101B98000B4393602368DB0754D56368012B20D07F
:101BA800022B3BD0002B3FD1474A126852051CD468
:101BB80001206AE0434A136807218B432B431360D3
:101BC800FFF72CFB06003F4B1A6807231340AB4274
:101BD800CED0FFF723FB801B3D4A9042F3D9032068
:101BE80053E0394A1268920369D537498A68072051
:101BF800824313438B60FFF711FB0600324B9B684F
:101C080038221A406368DB009A421BD0FFF706FBB4
:101C1800801B2F4B9842F1D9032036E02A4A1268DC
:101C28009201E2D4012030E0032B05D0264AD26D80
:101C38009207DAD4012028E0234A126E9207D4D4FE
:101C4800012022E01F4B1A6807231340AB421DD81E
:101C580023685B0706D51C4A93681E490B40E16858
:101C68000B439360FFF71CFF174B9A68120A0F2368
:101C780013409B00184A9A581F231340D840174B0B
:101C88001860174B1868FFF77DFA70BD0D4A136886
:101C980007218B432B431360FFF7C0FA0600094B5B
:101CA8001A6807231340AB42D2D0FFF7B7FA801B5C
:101CB800074B9842F3D90320E7E70120E5E7012025
:101CC800E3E7C0460020024000100240FFF0FFFF9B
:101CD80088130000FF8FFFFF643200083C000020DB
:101CE80044000020014B18687047C0463C000020A3
:101CF80010B5FFF7F7FF064B9A68120B072313403E
:101D08009B00044A9A581F231340D84010BDC04670
:101D180000100240A4320008F0B583B00400036844
:101D28009B0362D5584BDB6BDB001ED4564AD16B44
:101D3800802040050143D163D36B03400193019B8D
:101D48000126524A116880235B000B431360FFF79A
:101D580065FA05004D4B1B68DB0508D4FFF75EFAF2
:101D6800401B0228F6D9032502E00026E9E70025F2
:101D7800002D23D1444BD96DC02292000B00134093
:101D8800114210D0A2699A420DD03F4AD36D404902
:101D98000B40D06D802149020143D165D16D3D488A
:101DA8000140D165D365DB0710D4002D06D1364A32
:101DB800D36D37490B40A1690B43D365012E15D16B
:101DC800314AD36B34490B40D3630FE0FFF726FA4F
:101DD80007002D4BDB6D9B07E7D4FFF71FFAC01BED
:101DE8002E4B9842F5D90325DFE700252368DB074A
:101DF80006D5254A536D03218B4361680B43536510
:101E080023689B0706D5204A536D0C218B43A16894
:101E18000B43536523689B0606D51B4A536D20491F
:101E28000B40E1680B43536523685B040BD5164AE6
:101E3800536D9B009B0861690B4353658023DB0549
:101E480062699A4211D023681B050BD50E4A536D5F
:101E580014490B4021690B43536522698023DB0138
:101E68009A4209D0280003B0F0BD074AD168802300
:101E78005B020B43D360E6E7034AD16880235B0229
:101E88000B43D360EEE7C0460010024000700040EC
:101E9800FFFCFFFFFFFFFEFFFFFFFFEF88130000BF
:101EA800FFCFFFFFFF3FFFFF30B5EFF310840122A4
:101EB80082F3108801680B68124D2B400B6084F385
:101EC8001088EFF3108182F31088026893680E4C33
:101ED8002340936081F31088C36E012B06D08C23B6
:101EE8002022C2500023C366436730BDEFF3108140
:101EF80083F31088026813681024A343136081F3E6
:101F08001088ECE7DFFEFFFFFEFFFFEF704710B51C
:101F1800EFF31081012383F31088026813684024CB
:101F2800A343136081F3108888232022C250002322
:101F38008367FFF7EBFF10BD10B5806A00235E22B0
:101F48008352083A8352FFF725F810BD7047000006
:101F5800F8B504000268D36910689568BD491E0089
:101F68000E400B4205D1990603D581062CD4E90011
:101F78002AD4002E07D0B8492E000E400D4229D190
:101F8800B649084226D1E16E012900D1AAE0D9025A
:101F980002D5690200D543E11A0605D5020600D527
:101FA80045E12A0200D542E15A0602D5420600D58B
:101FB80044E11A0202D5420000D543E1DB0102D513
:101FC800002800DA42E1F8BD636F002BFBD0200047
:101FD8009847F8E7D90707D5C10505D5012717623E
:101FE800902162583A4362509A0709D5EA0707D503
:101FF8002268022111628E31625804273A436250E6
:102008005A0709D5EA0707D52268042111628C31DD
:10201800625802273A4362501A070AD5820601D449
:10202800002E06D022680826166290216258324394
:1020380062501A050AD5420108D522688021090193
:102048001162902162582026324362509022A25891
:10205800002AB8D09B0608D5830601D4EB0004D526
:10206800636F002B01D0200098479023E258236823
:102078009B685B0602D4282313422CD02000FFF76C
:1020880013FF23689B685B0621D5EFF310810123BA
:1020980083F310882268936840208343936081F318
:1020A80010888023E358002B0DD06D4A9A63802353
:1020B800E058FFF76FF9002800D184E78023E05843
:1020C800836B98477FE72000FEF764FF7BE72000DB
:1020D800FEF760FF77E72000FEF75CFF9023002201
:1020E800E25070E7D90600D451E7C10600D44EE7A4
:1020F8001023136223689B685B0655D58023E2583A
:1021080013685B689BB2002B00D15CE75C21615AC5
:10211800994200D857E75E21635213681B689B06F3
:102128000BD5022323675A33E15A0233E35AC91AFB
:1021380089B22000FFF70AFF45E7EFF3108001237B
:1021480083F3108821680A68464D2A400A6080F3A4
:102158001088EFF3108083F3108821688A689A4307
:102168008A6080F31088EFF3108083F31088216869
:102178008A684235FF35AA438A6080F310888C222A
:102188002021A1500022E266EFF3108183F310882A
:102198002268136810208343136081F3108880231A
:1021A800E058FFF7B7F8BCE75C23E15A0233E25A7C
:1021B800891A89B2E35A9BB2002B00D103E70029A0
:1021C80000D100E7EFF31085012383F3108820681E
:1021D8000268254E3240026085F31088EFF31085BF
:1021E80083F3108820688268204E3240826085F32D
:1021F80010888C222020A0500022E2666267EFF34C
:10220800108083F31088226813681025AB4313608D
:1022180080F31088022323672000FFF797FED2E699
:1022280080235B031362200000F08CFECBE6A36FD3
:10223800002B00D1C7E620009847C4E62000FFF72E
:1022480066FEC0E6200000F07FFEBCE6200000F03D
:102258007AFEB8E60F080000010000102001000413
:10226800411F0008FFFEFFFFDFFEFFFFFEFFFFEF3D
:1022780010B56023C35A8C228258222A05D00268DE
:10228800936908210B43936110BD0268526ADBB25F
:102298001340826D1370836D013383655E22835A08
:1022A800013B9BB28352835A9BB2002BECD1EFF3D4
:1022B800108C5D3A82F3108801680B68194C234032
:1022C8000B608CF31088EFF3108C82F31088016890
:1022D8008B6893438B608CF310888C231F32C25019
:1022E800002343670367C36E012B17D10023C3661E
:1022F800EFF31084013383F3108801680B68103AF8
:1023080093430B6084F310880368D9690A4200D0AC
:102318001A625C23C15AFFF719FEB5E7FEF722FEE1
:10232800B2E7C046DFFEFFFF10B56023C25A2C3368
:10233800C358222B05D00268936908210B43936187
:1023480010BD03685B6A1340826D1380836D02338E
:1023580083655E22835A013B9BB28352835A9BB2A8
:10236800002BEDD1EFF3108C5D3A82F310880168F1
:102378000B68194C23400B608CF31088EFF3108C1A
:1023880082F3108801688B6893438B608CF3108804
:102398008C231F32C250002343670367C36E012B8F
:1023A80017D10023C366EFF31084013383F3108839
:1023B80001680B68103A93430B6084F31088036834
:1023C800D9690A4200D01A625C23C15AFFF7BEFDE0
:1023D800B6E7FEF7C7FDB3E7DFFEFFFFF0B5CE4671
:1023E800474680B583B004006023C35A019303684D
:1023F800DD691A6890469A6891468C228258222A8A
:1024080008D09A6908210A439A6103B0C0BCB9464A
:10241800B046F0BD6823C65A40E09023E358002B2D
:1024280079D15E23E35A9BB2002B37D1EFF31080AA
:10243800012282F3108821680B684F4F3B400B60E4
:1024480080F31088EFF3108182F310882268936874
:102458004A480340936081F310888C232022E2507D
:10246800002363672367E36E012B5BD10023E366D8
:10247800EFF31080013383F3108821680B68103A5A
:1024880093430B6080F310882368D9690A4200D00F
:102498001A625C23E15A2000FFF758FD002E45D050
:1024A800AB0643D523685B6A6A4612791340A26D6E
:1024B8001370A36D0133A3655E22A35A013B9BB23F
:1024C800A3522368DD696A07ABD0EA0708D54246FC
:1024D800D20505D5012119629022A3580B43A350B8
:1024E800AB070AD54B46DB0707D5236802221A62D9
:1024F8008E32A35804210B43A3506B078DD54B464E
:10250800DB078AD5236804221A628C32A358022179
:102518000B43A35081E72000FEF73CFD90230022E7
:10252800E2507EE72000FEF71DFDB7E75E23E35A81
:102538009BB2002B00D168E76822A25A9A4200D8C1
:1025480063E7EFF31080012282F3108821688B681B
:102558000B4D2B408B6080F310880A4B6367EFF3B9
:10256800108182F3108822681368202003431360C7
:1025780081F3108849E7C046FFFEFFFFFEFFFFEF2B
:10258800FFFFFFEF79220008F8B5DE4657464E46B2
:102598004546E0B504006023C55A0368DF691A6838
:1025A80090469A6891468C228258222A09D09A69C4
:1025B80008210A439A61F0BCBB46B246A946A04628
:1025C800F8BD6823C65A43E09023E358002B7AD11C
:1025D8005E23E35A9BB2002B3AD1EFF3108001330C
:1025E8009B4683F3108821680B689A464E4B5246E7
:1025F8001A400A6080F31088EFF310818BF310887B
:102608002268936849480340936081F310888C23BB
:102618002022E250002363672367E36E012B59D120
:102628000023E366EFF31080013383F310882168F9
:102638000B68103A93430B6080F310882368D969BC
:102648000A4200D01A625C23E15A2000FFF77EFCA0
:10265800002E43D0BB0641D523685B6A2B40A26D90
:102668001380A36D0233A3655E22A35A013B9BB27C
:10267800A3522368DF697A07AAD0FA0708D5424629
:10268800D20505D5012119629022A3580B43A35006
:10269800BB070AD54B46DB0707D5236802221A6217
:1026A8008E32A35804210B43A3507B078CD54B468D
:1026B800DB0789D5236804221A628C32A3580221C9
:1026C8000B43A35080E72000FEF764FC9023002210
:1026D800E2507DE72000FEF745FCB9E75E23E35AA8
:1026E8009BB2002B00D166E76822A25A9A4200D812
:1026F80061E7EFF31080012282F3108821688B686C
:102708000B4D2B408B6080F310880A4B6367EFF307
:10271800108182F310882268136820200343136015
:1027280081F3108847E7C046FFFEFFFFFEFFFFEF7B
:10273800FFFFFFEF3123000830B58423C35C012B72
:1027480010D0842201238354882123334350046802
:10275800A36902252B43A3612023435000238354FC
:10276800002030BD0220FCE79023C05870470000CD
:1027780010B5040083680269134342691343C269B0
:10278800134301680A686B48024013430B602268D0
:10279800536869490B40E1680B435360226AA36997
:1027A8001A4321688B686548034013438B6022688D
:1027B800D36A0F218B43616A0B43D3622368604A53
:1027C80093420AD05F4A93423ED05F4A93425CD01C
:1027D8005E4A934249D010230BE05D4B5A6D0323A8
:1027E8001340022B43D02BD8002B42D0012B42D1CF
:1027F8000333E06980221202904248D0042B00D1B2
:1028080091E07AD8002B00D186E0022B73D1514891
:10281800636A5B00504A995AFDF76EFC63685B086F
:10282800C0186168FDF768FC0200103A4B4B9A42E9
:1028380000D97DE023680004000CD860002062E025
:10284800032B1AD10533D4E7414B5A6D0C2313409F
:10285800082B14D005D8002B13D0042BC9D0102373
:10286800C7E70C2B0FD1043BC3E70023C1E70223C2
:10287800BFE70023BDE71023BBE71023B9E7022316
:10288800B7E70023B5E71023B3E70023B1E7042B2C
:102898002ED023D8002B25D0022B1DD12D48636ABA
:1028A8005B002D4A995AFDF727FC400063685B08D6
:1028B800C0186168FDF720FC0200103A274B9A42C5
:1028C80034D882B20F239A434008083B184010437B
:1028D8002368D860002016E0012014E0082BDED021
:1028E800012010E0FFF704FA0028D8D100200AE000
:1028F800FFF7D6F8F8E7012005E0082B02D1802081
:10290800000285E7012001236A22A352023AA3525A
:1029180000236367A36710BDFFF7EAF9002800D01A
:1029280076E70020EFE7FFF7BBF8F7E70120EAE7D3
:102938000120E8E7F369FFCFFFCFFFFFFFF4FF11A6
:10294800003801400044004000480040004C00406E
:10295800001002400024F400C4320008EFFF000019
:10296800836ADB0706D5026853682C490B40C16AA5
:102978000B435360836A9B0706D50268536828494E
:102988000B40016B0B435360836A5B0706D50268F3
:10299800536824490B40416B0B435360836A1B0700
:1029A80006D50268536820490B40816B0B4353607E
:1029B800836ADB0606D5026893681C490B40C16B25
:1029C8000B439360836A9B0606D50268936818498F
:1029D8000B40016C0B439360836A5B060BD502685E
:1029E800536814490B40416C0B43536080235B03CD
:1029F800426C9A420AD0836A1B0606D5026853685D
:102A08000D490B40C16C0B43536070470268536813
:102A18000A490B40816C0B435360ECE7FFFFFDFF55
:102A2800FFFFFEFFFFFFFBFFFF7FFFFFFFEFFFFF43
:102A3800FFDFFFFFFFFFEFFFFFFFF7FFFFFF9FFF36
:102A4800F8B5CE46474680B506000D0017009946F2
:102A5800089B98463368DC692C40641B63425C41E0
:102A6800BC4257D143460133F4D0FEF7D7FB4B465F
:102A7800C01A40452ED84346002B2BD033681A681D
:102A88005207E7D5DA691205E4D5802212011A62E5
:102A9800EFF31080012282F3108831680B68204C14
:102AA80023400B6080F31088EFF3108082F31088C6
:102AB80031688B6893438B6080F3108820238732BA
:102AC800B3500432B3500432B35064330022F2548A
:102AD800032020E0EFF31080012282F31088316890
:102AE8000B680F4C23400B6080F31088EFF31080C5
:102AF80082F3108831688B6893438B6080F3108869
:102B080020238732B3500432B35064330022F25486
:102B1800032000E00020C0BCB946B046F8BDC0465E
:102B28005FFEFFFFF0B5C64600B582B004000D0099
:102B380090461E008823C358202B5CD100295FD003
:102B4800002A5FD080235B0182689A4204D103691E
:102B5800002B01D1CB0757D490230022E250083B29
:102B68002132E250FEF75AFB070054234246E25254
:102B78000233E25280235B01A2689A4202D000230A
:102B8800984613E02369002B25D0002398460DE0D2
:102B980043461B882268DB05DB0D936202239C46B3
:102BA800E0445623E25A013A92B2E2525623E35ADB
:102BB8009BB2002B12D000963B00002280212000FF
:102BC800FFF73EFF002821D1002DE1D02A782368A5
:102BD8009A620135E5E7A8460025E7E700963B003D
:102BE800002240212000FFF72BFF002810D1882366
:102BF8002022E25000E0022002B080BCB846F0BDBE
:102C08000120F9E70120F7E70120F5E70320F3E7C2
:102C18000320F1E730B583B0040090230022C250AE
:102C2800FEF7FCFA050022681268130710D423681F
:102C38001B685B0719D420238822A3500432A350B1
:102C48000023E3662367083AA354002003B030BD8D
:102C580080210C4B00930300002289032000FFF71A
:102C6800EFFE0028E3D00320F0E78021054B009316
:102C78002B000022C9032000FFF7E2FE0028DAD06B
:102C88000320E3E7FFFFFF0170B504000D000028F3
:102C980044D080231B02C2699A4241D08368002B2A
:102CA80040D18833C358002B2ED088232422E250E9
:102CB8002268136801218B4313602000FFF758FD39
:102CC800012820D0A36A002B24D122685368164912
:102CD8000B405360226893682A218B4393602268D3
:102CE80051688023DB010B43536023685968202215
:102CF80091430D435D602268136801210B43136003
:102D08002000FFF787FF70BD84330022C254FEF70E
:102D1800C5F9CAE72000FFF723FED6E70120F2E74E
:102D28000120F0E70120EEE7FFF7FFFF10B581650E
:102D38005C23C2520233C252002343678368802156
:102D480049018B4208D0002B15D10369002B0ED105
:102D58006033FF21C15215E00369002B03D16033B2
:102D68004649C1520EE06023FF21C1520AE06023A8
:102D78007F21C15206E0802149058B4231D0602372
:102D88000021C15290230021C150043B2231C1507F
:102D9800EFF3108C012484F3108801688B682343B7
:102DA8008B608CF3108880239B05416E994223D059
:102DB80080235B0182689A424CD0314B4367036998
:102DC800002B4DD0EFF31081012383F310880268A4
:102DD80010682033FF330343136081F31088002009
:102DE80010BD0369002B03D160337F21C152C9E7AD
:102DF80060233F21C152C5E76823C35A9342D7D8FD
:102E080080235B0182689A421ED01E4B4367036988
:102E1800002B0BD0EFF31081012383F31088026895
:102E28001468FF332343136081F31088EFF3108194
:102E3800012383F310880268906880235B050343AD
:102E4800936081F31088CAE70369002BDDD10E4B2C
:102E58004367DCE70369002BAFD10C4B4367AEE750
:102E6800EFF31081012383F3108802681368202090
:102E78000343136081F31088B1E7C046FF010000E7
:102E880079220008E523000891250008312300086D
:102E980070B58C23C358202B23D1002923D0002AB6
:102EA80023D080235B0184689C4204D10369002BF2
:102EB80001D1CB071BD40023C36603685B681B02E0
:102EC8000CD5EFF3108C012383F310880468256870
:102ED8008023DB042B4323608CF31088FFF726FF45
:102EE80000E0022070BD0120FCE70120FAE7012084
:102EF800F8E70000F8B50400436E002B05D1013354
:102F08006A228352023A8352F8BD026895686D0EB0
:102F180007231D409268520F1340084FF85CC00009
:102F2800074EF15CFDF772F96A23E052785DC00044
:102F3800715DFDF76BF96823E052E5E7E4320008BC
:102F4800DC320008704770477047000070B5842372
:102F5800C35C012B15D0842401260655882524231B
:102F68004351026813681168B1431160064A13405F
:102F78000022426601680B6020234351025500205D
:102F880070BD0220FCE7C046FFFFFFDFF8B5040074
:102F98000A008423C35C012B1BD0842501206055C3
:102FA80088262423A35123681F6819688143196060
:102FB80020688368DB00D908114381602000FFF78F
:102FC80099FF23681F602023A35100236355002025
:102FD800F8BD0220FCE70000F8B504000B008422CD
:102FE800825C012A1BD08425012060558826242272
:102FF800A25122681768116881431160226891689C
:1030080008480140194391602000FFF773FF2368C7
:103018001F602023A351002363550020F8BD022020
:10302800FCE7C046FFFFFFF170B50C4D0C4E761B58
:10303800B61005D0002408CD01349847A642FAD12D
:1030480000F0EAF8074D084E761BB61005D00024AC
:1030580008CD01349847A642FAD170BDF032000875
:10306800F0320008F0320008F8320008F0B5050028
:10307800830749D0541E002A45D003000326CAB24C
:1030880002E00135013C3ED301332A703342F8D1C6
:10309800032C30D9FF220A40150215432A04154390
:1030A8000F2C34D92700103F3F093E01B4461E00BB
:1030B8001A0010366644156055609560D560103268
:1030C800B242F8D101373F01DB190F270C22274004
:1030D80022403C00002A0ED03E1FB608B400A44689
:1030E8001A001C1D644420C2A242FCD103240136EC
:1030F800B6009B193C40002C05D0C9B21C191970A8
:1031080001339C42FBD1F0BD03001400C0E7270047
:10311800E2E7C046034B10B5002B02D0024800F08E
:1031280005F810BD000000004531000810B5010089
:1031380000230022002000F019F810BD70B5074DDB
:10314800074C641BA41005D0013CA300EB5898471A
:10315800002CF9D100F066F870BDC046F8320008BE
:10316800FC3200087047C0467047C046F0B5D646E6
:103178004F464646C0B5264F82B00600386892468C
:1031880098468946FFF7EEFF224B1B680193A4235C
:10319800019A5B00D558002D2ED06C681F2C30DCAE
:1031A800002E0FD1631C6B604B460234A4003868B4
:1031B8006351FFF7D9FF002002B0E0BCBA46B14620
:1031C800A846F0BD882251462800A300EB18995064
:1031D800873AA2408930FF30016811430160842199
:1031E800404649005850022EDCD12B008D33FF3366
:1031F80019680A431A60D5E715004D35FF35D550D3
:10320800CBE73868FFF7B0FF01204042D4E7C0465B
:1032180070040020EC320008F8B5C046F8BC08BCC1
:103228009E467047F8B5C046F8BC08BC9E46704735
:103238002020202020202020202020202020202086
:103248000000000030783334000000003078333656
:10325800000000003078313000000000000000005D
:103268000000000000000000000000000000000056
:103278000000000000000000000000000100000045
:103288000200000003000000040000000600000027
:10329800070000000800000009000000000000000E
:1032A8000000000000000000000000000100000015
:1032B80002000000030000000400000001000200FA
:1032C8000400060008000A000C001000200040005E
:1032D8008000000108040204080101010101010342
:0832E80007010000480000206E
:0832F0001D310008E100000897
:0432F800B900000811
:1032FC00B6AFD7F7CDEAB3C945585620A3BA0000EC
:10330C00D1ADBBB7B4CECAFDA3BA3000C4BFB1EACD
:10331C00B2BDCAFDA3BA300755000000F5B4FFFDDD
:10332C00FC3776FFFDFC2050FFFDFC000024F40070
:10333C000100000004000000000000003403002025
:10334C009C0300200404002000000000000000008A
:10335C000000000000000000000000000000000061
:10336C000000000000000000000000000000000051
:10337C000000000000000000000000000000000041
:10338C000000000000000000000000000000000031
:10339C000000000000000000000000000000000021
:1033AC000000000000000000000000000000000011
:1033BC000000000000000000000000000000000001
:1033CC0000000000000000000000000000000000F1
:1033DC0000000000000000000000000000000000E1
:1033EC0001000000000000000E33CDAB34126DE67E
:1033FC00ECDE05000B0000000000000000000000E7
:10340C0000000000000000000000000000000000B0
:10341C0000000000000000000000000000000000A0
:10342C000000000000000000000000000000000090
:10343C000000000000000000000000000000000080
:04376C0054050020E0
:0400000508001139A5
:00000001FF
